:020000040800F2
:10000000A830002019010008210100082301000880
:100010002501000827010008290100080000000050
:100020000000000000000000000000002B0100089C
:100030002D010008000000002F0100080505000840
:1000400033010008330100083301000833010008C0
:1000500033010008330100083301000833010008B0
:1000600033010008330100083301000833010008A0
:10007000A5030008F9030008330100083301000854
:1000800055040008B10400083301000833010008DA
:1000900033010008A90100083301000833010008FA
:1000A0003301000833010008330100083301000860
:1000B0003301000833010008330100083301000850
:1000C0003301000833010008330100083301000840
:1000D0003301000833010008B105000839060008A3
:1000E000330100083301000833010008000000005C
:1000F0000000000000000000000000000000000000
:1001000033010008DFF80CD000F03CF8004800474D
:1001100075190008A83000200648804706480047A7
:10012000FEE7FEE7FEE7FEE7FEE7FEE7FEE7FEE7A7
:10013000FEE7FEE7210500080501000840EA01038B
:100140009B0703D009E008C9121F08C0042AFAD28D
:1001500003E011F8013B00F8013B521EF9D2704751
:10016000D2B201E000F8012B491EFBD270470022F9
:10017000F6E710B513460A4604461946FFF7F0FFA6
:10018000204610BD064C074D06E0E06840F0010334
:1001900094E8070098471034AC42F6D3FFF7B6FF57
:1001A000E82C0008082D000810B586B0142101A81D
:1001B000FFF7DDFF1448B0F890411449144800F0EF
:1001C00019FC10B101F043F91CE001AA012110480B
:1001D00000F04AFC04EB84010B4A02EB810014227C
:1001E00001A9FFF7ABFF0848B0F89001401C064991
:1001F000A1F890010846B0F89001142802D100201F
:10020000A1F8900106B010BD640400208A800100AE
:100210000064004070B50446002500261548B0F87B
:1002200092011449B1F89011884200D11FE01148A1
:10023000B0F8926106EB86000E4A02EB80011422B0
:100240002046FFF77BFF14210A48FFF790FF09487B
:10025000B0F89201401C0749A1F892010846B0F895
:100260009201142802D10020A1F89201012528460C
:1002700070BD00006404002070B586B004460E46D0
:100280001546142101A8FFF772FF00200190029883
:1002900040EA0540029004208DF80C0000208DF803
:1002A0000D008DF80E40224631460DF10F00FFF78C
:1002B00045FF0E49B1F8D027B1F8D017491C0B4BB8
:1002C000A3F8D01702EB82011A4602EB8100142238
:1002D00001A9FFF733FF0548B0F8D007642803D120
:1002E00000200249A1F8D00706B070BDF805002033
:1002F00070B586B0142101A8FFF739FF002400254E
:10030000032602211F4800F03DF9012837D100BF24
:1003100032E01D48B0F8D2071B49B1F8D017884227
:1003200029D00021174800F02DF9174890F8D2572E
:1003300005EB8500144A02EB8001142201A8FFF7A7
:10034000FDFE01A9114800F001FC0646032E11D064
:100350000D48B0F8D207401C0B49A1F8D207084657
:10036000B0F8D207642802D10020A1F8D207601C9F
:10037000C4B201E002E001E0032CCADB00BF06B01A
:1003800070BD000008000020F80500200064004057
:100390000146002008784FF6FF7202EA00204A78F2
:1003A0001043704710B504220121114800F0D1FD1F
:1003B000082201210E4800F0CCFD022201210C4848
:1003C00000F0A0FE90B10121094800F03FFD40F28D
:1003D0000631084802F0BBFB02220121044800F06C
:1003E00057FE02220121024800F084FE10BD0000E9
:1003F000000002400048004010B5042202211248CB
:1004000000F0A7FD082202210F4800F0A2FD022201
:1004100011460D4800F076FEA8B1022211460A48A6
:1004200000F068FE0021094802F050FB0221064856
:1004300000F00CFD40F20531044802F088FB012079
:10044000034981F8000110BD00000240004800404F
:100450006103002010B504220521124800F079FD47
:10046000082205210F4800F074FD022205210D48E5
:1004700000F048FEA8B1022205210A4800F03AFE29
:100480000021094802F022FB0521064800F0DEFCAD
:1004900040F20531044802F05AFB0120034981F87B
:1004A000000110BD00000240004400406001002037
:1004B00010B504220621114800F04BFD0822062148
:1004C0000E4800F046FD022206210C4800F01AFEFC
:1004D00090B10621094800F0B9FC40F20631084805
:1004E00002F035FB02220621044800F0D1FD022271
:1004F0000621024800F0FEFD10BD00000000024091
:100500000044004005480068401C04490860084653
:100510000068401C08B900200860704704000020F3
:1005200010B51448006840F0010012490860084600
:100530004068114908400F494860084600680F4963
:1005400008400C4908600846006820F480200860D4
:10055000084640680A49084006494860084600685D
:1005600006490840034908604FF41F00886002F004
:1005700019F910BD001002400C00FFE8FFFFF6FE65
:10058000FFFF00F710B50246002021B9074B1B689A
:100590001360012008E0054B1B6814681B1B8B428D
:1005A00001D3012000E0002010BD00000400002065
:1005B00010B501211C4802F09EFA48B902211A48E0
:1005C00002F099FA20B90321174802F094FA10B109
:1005D000154802F02DFA1549134802F0D2FA60B11D
:1005E00040F20531104802F0A5FA0521104800F04C
:1005F0002DFC0E490C4802F0B7FA0E490A4802F0E9
:10060000C0FA80B140F20631074802F093FA0521A2
:10061000074800F034FC4021034802F057FA05492E
:10062000014802F0A1FA10BD004400400503050096
:10063000000002400603060010B501211C4802F02C
:100640005AFA48B902211A4802F055FA20B9032192
:10065000174802F050FA10B1154802F0E9F91549AF
:10066000134802F08EFA60B140F20531104802F0F2
:1006700061FA0221104800F0E9FB0E490C4802F033
:1006800073FA0E490A4802F07CFA80B140F2063152
:10069000074802F04FFA0221074800F0F0FB402122
:1006A000034802F013FA0549014802F05DFA10BD53
:1006B0000048004005030500000002400603060054
:1006C00010B5002804DB0A07130E054A135406E090
:1006D0000A07140E034A00F00F031B1FD45410BD69
:1006E00000E400E018ED00E002E008C8121F08C1B5
:1006F000002AFAD170477047002001E001C1121FA3
:10070000002AFBD17047000010B565210148FFF7B2
:100710002EFD10BDD40E002010B500F017FF00F024
:1007200029FF01F030FA00F08BFF00F08CFE10BDC5
:1007300010B502220021152001F02EFA10BD70B56F
:1007400004460D4614B1012C06D103E02846FFF7FC
:1007500061FD70BD0020FCE70020FAE72DE9F041C3
:1007600007460C4615461E4617B1012F07D105E076
:10077000324629462046FFF77FFD00E000BF00BF5C
:10078000BDE8F08110B5FFF7B3FD10BD10B504460C
:100790000548844207D140F2194001F0BFFE40F203
:1007A000194001F0ABFE10BD00640040014600207E
:1007B0008A69C2F30210704710B50021837A0122C2
:1007C00002FA03F13E4A126842F001023C4B1A6001
:1007D0003B4A1C3212688A43394B1C331A60C28967
:1007E000DAB9374A0C3212688A43354B0C331A6037
:1007F000C288344B03EA024243881A434389304C8F
:10080000403444F8332082882E4B03EA02420388A6
:100810001A43438904EBC3035A60C289012A1BD1DE
:10082000274A0C3212680A43254B0C331A6002889F
:10083000244B03EA024243881A434389204C403444
:1008400044F8332082881F4B03EA0242C3881A43CC
:10085000438904EBC3035A6082893AB9184A121DCE
:1008600012688A43164B1B1D1A6006E0144A121DBB
:1008700012680A43124B1B1D1A6002893AB9104ACA
:10088000143212688A430E4B14331A6006E00C4A85
:10089000143212680A430A4B14331A60027C012A8C
:1008A00006D1074A1C3212680A43054B1C331A60F2
:1008B000034A126822F00102014B1A6010BD0000C9
:1008C000006600400000FFFF70B502464FF6FF7360
:1008D0000020146824F002041460146844F0010439
:1008E000146000E05B1E546804F001040CB9002B96
:1008F000F8D1546804F001040CB9002074E00C78BD
:100900004FF0404505EA84744D784FF0407606EA92
:1009100005652C438D784FF4702606EA05452C4377
:10092000CD784FF4E00606EA05552C434D896D1E3F
:10093000C5F309052C43D4610C79012C04D114684A
:1009400044F08004146003E0146824F08004146010
:100950004C79012C04D1146844F04004146003E085
:10096000146824F0400414608C79012C04D11468BC
:1009700044F02004146003E0146824F020041460A0
:10098000CC79012C04D1146844F01004146003E005
:10099000146824F0100414600C7A012C04D114683B
:1009A00044F00804146003E0146824F008041460A0
:1009B0004C7A012C04D1146844F00404146003E060
:1009C000146824F004041460146824F00104146012
:1009D0004FF6FF7300E05B1E546804F001040CB195
:1009E000002BF8D103B1012070BD42690A43426176
:1009F00070470000F0B505460C46002600274CF273
:100A0000C200844205D10021284600F047F906467D
:100A100019E01348844205D10121284600F03EF92F
:100A2000064610E00F48844204D12846FFF7BEFE78
:100A3000064608E005EB14300068C4F38412012177
:100A4000914000EA0106686904F01F02012191400B
:100A500000EA010716B10FB10120F0BD0020FCE74C
:100A6000C5000100CB80010010B500F5D87303EB81
:100A700001131B6803F004031372137A3BB900F5EA
:100A8000D87303EB01131B685B0D136006E000F5E0
:100A9000D87303EB01131B68DB08536000F5D873B0
:100AA00003EB01131B6803F00203537200F5DA73C2
:100AB00003EB01131B681B0AD37400F5DA7303EB15
:100AC00001131B6803F00F03937200F5DC7303EB53
:100AD00001131B68D37200F5DC7303EB01131B6871
:100AE0001C0A147300F5DC7303EB01131B681C0C68
:100AF000547300F5DC7303EB01131B681C0E947335
:100B000000F5DE7303EB01131B68D37300F5DE738E
:100B100003EB01131B681C0A147400F5DE7303EB6E
:100B200001131B681C0C547400F5DE7303EB0113F6
:100B30001B681C0E947421B9C36843F02003C36082
:100B400003E0036943F02003036110BD30B50246A2
:100B50000B460021906800F08060B0F1806F00D1FA
:100B600010E0906800F00060B0F1006F01D1012149
:100B700008E0906800F08050B0F1805F01D1022160
:100B800000E00321032901D1032030BD02F5C0702C
:100B900000EB0110006800F0010402F5C07000EBEA
:100BA00001100460187A88B918883B4C04EA405058
:100BB0005C7A204302F5C07404EB011424682043DE
:100BC00002F5C07404EB0114206013E06FF0070419
:100BD000586804EAC0001C7A20435C7A204302F57E
:100BE000C07404EB01142468204302F5C07404EBC4
:100BF0000114206002F5C27000EB0110006820F0C3
:100C00000F0402F5C27000EB0110046002F5C2701F
:100C100000EB011000689C7A204302F5C27404EBDB
:100C200001142060987B4FF07F4404EA00605C7BF5
:100C30004FF47F0505EA044420431C7B2D1205EA8E
:100C400004242043DC7A204302F5C47404EB01142D
:100C50002060987C2C0404EA00605C7C2D0205EA8C
:100C6000044420431C7C2D1205EA04242043DC7B31
:100C7000204302F5C67404EB0114206002F5C07035
:100C800000EB0110006840F0010402F5C07000EBB9
:100C900001100460084678E70000E0FF02460020EB
:100CA00019B9D36803F0030004E0012902D11369E4
:100CB00003F00300704710B5024632B1012A16D086
:100CC000022A20D0032A41D12EE000234B71CB71A0
:100CD0008B7140F2FF334B8100230B724B70022368
:100CE0008B700023CB700B714B720B7030E00123C3
:100CF000CB8100230B740B810B804B808B80CB80CE
:100D00008B814B8124E0002005E0002401F10B03DE
:100D10001C54431CD8B20828F7D300238B724B60B5
:100D20000B724B720B6013E0002005E0002401F110
:100D30000B031C54431CD8B20828F7D300238B7232
:100D40004B600B72CB744B720B6001E000BFFEE78F
:100D500000BF10BD70470000034890F83C0008B188
:100D6000012070470020FCE74210002010B5044627
:100D7000012C02D0022C06D102E000F007F802E0BC
:100D800000F012F800BF00BF10BD000010B54FF416
:100D900080710448FFF7EBF90020024981F8000157
:100DA00010BD00006001002010B54FF480710448B0
:100DB000FFF7DDF90020024981F8000110BD0000B5
:100DC000610300202DE9F84304460F4615461E46F0
:100DD000DDF820801B48009024B1012C03D0022CA8
:100DE00007D103E005E01748009002E016480090A4
:100DF00000BF00BF009801F021FE3946009801F0C5
:100E0000CFFD2946009801F0F8FE3146009801F028
:100E1000E4FE4146009801F0D0FE0021009801F068
:100E200081FE0021009801F075FE0421009801F078
:100E3000CCFE0821009801F0D8FE009801F056FE83
:100E4000BDE8F883004400400048004070B5054606
:100E50000C462146284600F0C1F908B900BFFEE75C
:100E600004EB8400810005F10800405820F00101E6
:100E700004EB8400820005F10800815070BD70B55C
:100E800005460C462146284600F0A8F908B900BFDF
:100E9000FEE704EB8400810005F10800405840F0B3
:100EA000010104EB8400820005F10800815070BD4F
:100EB00070B505460C462146284600F08FF908B962
:100EC00000BFFEE704EB8400810005F108004058F4
:100ED00020F0200104EB8400820005F1080081501D
:100EE00070BD70B504460D462946204600F076F9DF
:100EF00008B900BFFEE705EB8500810004F108009A
:100F0000405820F0010105EB8500820004F1080043
:100F10008150002105EB8500820004F1080081501A
:100F200005EB8500820004F10C00815005EB850083
:100F3000820004F11000815005EB8500820004F16D
:100F4000140081506068AA000F219140084360603E
:100F500070BD10B543688C0002FA04F4234343606B
:100F600010BD2DE9F04104460D461646294620469F
:100F700000F034F908B900BFFEE705EB85008200F8
:100F800004F110003168815005EB8500820004F106
:100F90001400B1688150308A81B205EB850082006F
:100FA00004F10C00815005EB8500810004F108007C
:100FB000475827F47C57F168706808437169084303
:100FC000074305EB8500810004F108004750307E9F
:100FD00001280ED105EB8500810004F1080040587E
:100FE00040F0400105EB8500820004F108008150CB
:100FF0000DE005EB8500810004F10800405820F069
:10100000400105EB8500820004F108008150707EEC
:1010100001280ED105EB8500810004F1080040583D
:1010200040F0800105EB8500820004F1080081504A
:101030000DE005EB8500810004F10800405820F028
:10104000800105EB8500820004F108008150B07E2C
:1010500070B905EB8500810004F10800405820F0CC
:10106000100105EB8500820004F1080081500DE0BD
:1010700005EB8500810004F10800405840F01001A4
:1010800005EB8500820004F108008150BDE8F08185
:1010900070B504460D4616462946204600F09EF8D7
:1010A00008B900BFFEE705EB8500810004F10800E8
:1010B0004058B04305EB85018A0004F108018850CF
:1010C00070BD70B504460D4616462946204600F010
:1010D00085F808B900BFFEE705EB8500810004F143
:1010E00008004058304305EB85018A0004F10801EF
:1010F000885070BD10B543688C0002FA04F4234395
:10110000436010BD70B5034600BF00BF022A04D083
:10111000042A11D0082A2DD11DE018688E0002FA89
:1011200006F600EA060501EB8100860003F10800DF
:10113000805900F002041FE018688E0002FA06F6DB
:1011400000EA060501EB8100860003F108008059E2
:1011500000F0040410E018688E0002FA06F600EAB7
:10116000060501EB8100860003F10800805900F0BC
:10117000080401E000BFFEE700BF15B10CB101207B
:1011800070BD0020FCE770B506460C4615462146AA
:10119000304600F023F808B900BFFEE704EB8400F6
:1011A000810006F11400455070BD70B505460C462F
:1011B0002146284600F012F808B900BFFEE704EB0C
:1011C0008400810005F10800405820F4804104EBC0
:1011D0008400820005F10800815070BD02460120A4
:1011E000034B9A4202D1042900DD00207047000021
:1011F0000004024070B506460C46154621463046AE
:10120000FFF7ECFF08B900BFFEE7A9B204EB8400CA
:10121000820006F10C00815070BD10B50446012C0F
:1012200002D0022C06D102E000F056F810BD00F00A
:101230005DF8FBE70020F9E70248007800F00100C4
:10124000704700000C00002010B500F027F804469D
:10125000012020706070002060803420A080012078
:1012600010BD10B500F01AF80446012020700320CC
:1012700060704FF47A7060800E20A080012010BD55
:1012800010B500F00BF804460120207003206070B8
:10129000002060803420A080012010BD00487047ED
:1012A000CC0D002010B500F00DF804460120207090
:1012B000042060704FF4C87060800A20A080012074
:1012C00010BD0000004870473A0F00200148007828
:1012D000704700009D10002000487047600100200A
:1012E000014890F8000170476001002000487047F5
:1012F00061030020014890F800017047610300205D
:1013000010B50446012C02D0022C06D102E0FFF7F2
:10131000E7FF10BDFFF7EEFFFBE70020F9E7000055
:101320000148408C70470000D40E002001488078AE
:10133000704700003700002008B500210020009011
:1013400014480068009000BF0EE001EB4100114A14
:101350000244481C00EB40000E4B184403881380E5
:1013600080789070481CC1B20A4890F83C00401E3A
:101370008842EADC074890F83C00401E054A82F8A3
:101380003C00BDF8002010469DF8022040EA0240D3
:1013900008BD000042100020F0B5044616460025A6
:1013A000002201F00F0501F0100707B135430020BE
:1013B0001EE0012787401F40C7B122684FEA800C1A
:1013C0000F2707FA0CF7BA43870005FA07F73A43E5
:1013D000282904D1012787401F40676105E048297B
:1013E00003D1012787401F4027612260471CB8B204
:1013F0000828DED3082022E0012787401F40E7B1FC
:101400006268A0F108074FEA870C0F2707FA0CF76C
:10141000BA43A0F10807BF0005FA07F73A432829A5
:1014200004D1012787401F40676105E0482903D1A7
:10143000012787401F4027616260471CB8B210280F
:10144000DAD3F0BD704710B500F001F810BD10B54B
:1014500000F062F800F004F800F03CF810BD000065
:101460000EB569460020FFF726FC1948FFF78EF9F4
:1014700000208DF8040001208DF8050000208DF873
:1014800006008DF807008DF808008DF8090001208E
:101490008DF8000000208DF8010004208DF8020076
:1014A00002208DF803003020ADF80A006946084894
:1014B000FFF70AFA69460648FFF706FA10210448C2
:1014C000FFF793FA4FF480610148FFF78EFA0EBDE3
:1014D0000064004000B585B069460120FFF7EBFBD2
:1014E0000020ADF80A00ADF80C000120ADF80E00A8
:1014F0000020ADF80000ADF80200ADF80400ADF832
:1015000006000120ADF808008DF810006846FFF7CE
:1015100053F905B000BD000010B540F2026000F0C4
:10152000DDFF40F2197000F0D9FF4FF40063032291
:1015300048210548FFF730FF4FF48053032218215C
:101540000148FFF729FF10BD0008014010B540F227
:10155000046000F0C3FF4FF400530322102104483D
:10156000FFF71AFF4FF400500149086110BD000059
:101570000010014010B5124800684FF47A71B0FBBA
:10158000F1F4601EB0F1807F01D301200FE0601EF6
:101590004FF0E02148610F214FF0FF30FFF790F846
:1015A00000204FF0E021886107200861002008B189
:1015B00000BFFEE70021481EFFF782F810BD0000C3
:1015C0000000002010B500F003F800F051F810BD45
:1015D00010B540F2026000F081FF40F2117000F09F
:1015E0007DFF0423032218210448FFF7D5FE0823BA
:1015F000032204210148FFF7CFFE10BD000801407F
:1016000010B500F003F800F0AFF810BD10B540F2CF
:10161000036000F063FF40F2127000F05FFF4FF4D0
:101620008063032218210548FFF7B6FE4FF40063DC
:10163000032204210148FFF7AFFE10BD000C01405A
:1016400008B5FFF7BFFF0020034602464FF4E13123
:1016500000900120FFF7B6FBFFF7D2FF0020034602
:1016600002464FF4E13100900220FFF7ABFB08BDCA
:1016700000B587B04FF4A06000F030FF0621364877
:10168000FFF72FFC01208DF81A003448029001204A
:101690008DF81900002003904FF4807004903048BA
:1016A000009000208DF8180001904FF440500590F4
:1016B0006A4606212848FFF754FC05212648FFF713
:1016C00010FC00208DF81A002648029001208DF8A9
:1016D0001900002003904FF480700490204800907F
:1016E00000208DF8180001904FF4405005906A4694
:1016F00005211948FFF735FC06211748FFF7D8FBED
:1017000006211548FFF751FD022206211248FFF776
:10171000D8FC042206211048FFF7BAFC0822062153
:101720000D48FFF7B5FC05210B48FFF7C1FB05216C
:101730000948FFF73AFD022205210748FFF7C1FCDF
:10174000042205210448FFF7A3FC082205210248D2
:10175000FFF79EFC07B000BD0000024060000020C3
:10176000044400406001002000B587B04FF4A06041
:1017700000F0B4FE01213648FFF7B3FB01208DF8DD
:101780001A003448029001208DF8190000200390BF
:101790004FF4807004903048009000208DF81800BD
:1017A00001904FF4405005906A4601212848FFF708
:1017B000D8FB02212648FFF794FB00208DF81A0081
:1017C0002648029001208DF81900002003904FF464
:1017D000807004902048009000208DF8180001903F
:1017E0004FF4405005906A4602211948FFF7B9FBB3
:1017F00001211748FFF75CFB01211548FFF7D5FCD5
:10180000022201211248FFF75CFC0422012110484A
:10181000FFF73EFC082201210D48FFF739FC0221A9
:101820000B48FFF745FB02210948FFF7BEFC0222E7
:1018300011460748FFF745FC042202210448FFF740
:1018400027FC082202210248FFF722FC07B000BD56
:1018500000000240610200200448004061030020B3
:1018600010B53B48007800F0010048B939480078CD
:1018700018B938480078012802D00020354908708E
:1018800034480078062856D2DFE800F003132131EF
:101890003C4CFFF7E6FC304908703048304908609E
:1018A0002120304908802B480078401C29490870C5
:1018B00042E02D4890F90000401C38B12A480078D9
:1018C00008B9022000E000202249087034E0FFF748
:1018D000D7FC214908702548214908606D2021491D
:1018E00008801C480078401C1A49087024E01E48F3
:1018F00090F90000401C20B116480078401C1549A2
:10190000087019E0FFF7A0FC134908701848144943
:1019100008600C20134908800E480078401C0D49CF
:10192000087009E0104890F90000401C10B1022036
:101930000849087000E000BF00BF09480268094874
:101940000188054800F02EFC0749087010BD000012
:101950000C00002015000020160000205125000872
:10196000180000201C00002017000020952500080A
:101970003D2500081FB50024002003901AA207CAC5
:101980008DE807000C25FEF7C7FE2BE04FF4FA7137
:1019900003A8FEF7F7FD01281AD1002103A8FEF7DE
:1019A000F1FD0CB9012000E000200446012C03D118
:1019B00040031049086103E04FF400500D494861AD
:1019C000681CC5B22B466A4608210020FEF7C6FEF9
:1019D000FFF746FF01F01CF900F0E8FEFEF7D2FE2B
:1019E00000F084F9D2E70000010303E8000E447E12
:1019F000050600000010014070B502460B464FF688
:101A0000FF7000240025002100BF13E0545C002576
:101A10000DE084EA000606F0010626B14AF201064E
:101A200086EA600600E04610304664106D1C082D02
:101A3000EFDB491C9942E9DB70BD2DE9F84307460D
:101A4000884691463D46002446460020009028786E
:101A50003055641C68783055641CA81CFEF798FC4F
:101A600000903019BDF800100180A41C281DFEF75D
:101A70008FFC00903019BDF800100180A41C68781C
:101A800010280DD1A8793055601C84B2EA8830192D
:101A900005F10801FEF752FBE888204484B200BF3C
:101AA00000BF21463046FFF7A7FF00903019BDF870
:101AB00000100180A01C84B2A9F80040BDE8F883A2
:101AC0002DE9FE4F80468A461646994647465546BA
:101AD0000024A3460020029001900090B8F1000F6E
:101AE00005D025B1082E02DBB9F1000F02D100208C
:101AF000BDE8FE8F285D3978884201D00020F7E7E5
:101B0000601C84B2285D7978884201D00020EFE71C
:101B1000601C84B27878102816D12819FEF738FC9A
:101B20000190A01C84B22819FEF732FC0090A01C82
:101B300084B279880198814203D1B98800988142A2
:101B400001D00020D4E708E0285D401DB04201D05C
:101B50000020CDE7601C84B200BF00BFB01E284447
:101B600000880290B11E2846FFF746FF8346BDF865
:101B70000800584501D00020BAE7721F91B2281919
:101B8000C8470120B4E710B500F09CFE00F0F6FE57
:101B9000FEF7CEFD10BD00002DE9F04103460D46D5
:101BA000164600240027A0462448006800F4E060A0
:101BB000B0F5A06F15D006DCB0F5407F18D0B0F5B9
:101BC000806F19D110E0B0F5C06F06D0B0F5E06FAE
:101BD00012D100274FF0040815E001274FF0030849
:101BE00011E00227B8460EE003274FF001080AE093
:101BF00004274FF0000806E04FF4A06000F022F840
:101C00000227B84600BF00BFC7F1040005FA00F480
:101C1000C8F104010F20C8403040044324010848A3
:101C2000C45403F01F01012088405911890001F1BB
:101C3000E021C1F80001BDE8F08100000CED00E0FA
:101C400000E400E002490143024A116070470000CD
:101C50000000FA050CED00E01CB50020009001909A
:101C600000241E480078012832D11D48007810B1A8
:101C700001282CD109E000211A48FEF783FC1848FE
:101C80000078401C1649087021E0C8211548FEF76D
:101C900079FC01281AD1114840780DF80400601C25
:101CA000C4B204236A4621460120FEF757FD0E48C0
:101CB0000078401CC0B20C490870052803DB0020E6
:101CC00008700649087000200549087000BF04E04C
:101CD000002003490870044908701CBD540000200E
:101CE00056000020580000205C00002010B542483B
:101CF0000078012850D14148007810B101284AD11C
:101D000010E00120FFF79EFB00213D48FEF73AFC62
:101D100000213C48FEF736FC38480078401C374923
:101D2000087038E0C8213648FEF72CFC012831D174
:101D30000020FFF787FB00F068FF01280DD101218B
:101D40003148417100202C49087000F0A7FC0020A8
:101D50002E490870294908701CE04FF496712948F3
:101D6000FEF710FC012815D128480078401CC0B2AD
:101D70002649087003280ADB002008700221224847
:101D8000417100201C490870022000F087FC0020EF
:101D90001A49087000BF00BF14211D48FEF7F2FB6E
:101DA000012827D100211A48FEF7ECFB164840799C
:101DB00002281FD100F029FF01280DD11548007815
:101DC000401C40B213490870052813DB0520087039
:101DD00001210D4841710DE00E480078401E40B2CF
:101DE0000C49087010F1050F04DCFB20087000217D
:101DF0000548417110BD0000400000204100002056
:101E000044000020480000209D1000204C000020CD
:101E1000500000204D0000202DE9FC4106460D46F3
:101E2000174600200090019000240DF80460641C07
:101E30000DF80450641C0DEB04002A463946FEF7E9
:101E40007DF96019C4B280236A4621460120FEF75D
:101E500085FCBDE8FC8100001CB5002000900190CD
:101E6000054840798DF8000002236A4601210846A2
:101E7000FEF774FC1CBD0000370000202DE9FC417A
:101E800006460D46174600200090019000240DF8EC
:101E90000460641C0DF80450641C0DEB04002A4619
:101EA0003946FEF74BF96019C4B281236A462146D0
:101EB0000120FEF753FCBDE8FC8100001CB50020AA
:101EC00000900190FFF72CFA0446FFF72FFA8442A6
:101ED00003DB02211248817115E0FFF7ADF90128FB
:101EE00009D101210E488171C07920F00100401C08
:101EF0000B49C87107E0002109488171C07920F0C1
:101F000001010748C1710648C01C01680091406882
:101F1000019001236A4608211846FEF71FFC1CBDEC
:101F20009D1000202DE9FC4782460D4600200190BF
:101F30008046002465200090002600274FF000090D
:101F4000285D0190641C285D404400F0FF08641C7B
:101F5000285D012804D0022808D003281DD11BE0E9
:101F60006A4601210846FFF757FF16E010277F1C3D
:101F700000260EE0781EB04201D0062000E00520C9
:101F80008146B11CC8B2064A4946FFF745FF701C9E
:101F9000C6B2BE42EEDB00E000BF00BFBDE8FC877A
:101FA000DA0E0020FEB506460C4600250020019002
:101FB00002900090FFF78AF966285ADB20680190AA
:101FC00020798DF80800681DC5B29DF804006428CA
:101FD00003DA9DF80400282806DC9DF8000020F0B4
:101FE0000100401C009003E09DF8040021490870A6
:101FF0009DF80500642803DA9DF80500282806DC12
:102000009DF8000020F00200801C009003E09DF885
:102010000500184948709DF80600642803DA9DF809
:102020000600282806DC9DF8000020F00400001DB2
:10203000009003E09DF806000E498870BDF8070087
:10204000B0F5347F03DABDF80700962806DC9DF86A
:10205000000020F008000830009004E0BDF8070000
:102060000449A1F803009DF8000002494871FFF7F8
:10207000F3FEFEBD370000207CB505460E4600206D
:102080000090019000240DEB040023490988018091
:10209000A41C0DEB04002049C9880180A41C0DEB91
:1020A00004001D4909890180A41C6A4606210120FB
:1020B000FFF7E4FE00240020009001900DEB0400E7
:1020C000154949890180A41C0DEB0401124880893F
:1020D0000880A41C0DEB04010F48C0890880A41CD3
:1020E0006A4606210220FFF7C9FE00240020009066
:1020F00001900DEB04010848808A0880A41C0DEBB8
:1021000004010548808B0880A41C6A460421032032
:10211000FFF7B4FE7CBD00007F1000207CB50646B2
:102120000D46002000900190002401202855641CD9
:102130002855641C0A480078012801D1022000E0DB
:10214000012028550648007810B90120044908707C
:1021500003236A4621460120FEF700FB7CBD0000F8
:10216000400000200022014B1A70704754000020EC
:1021700070B506460D460024285D66280EDB285DF6
:1021800007490870601CC4B2285D4870601CC4B266
:10219000285D8870601CC4B2FFF790FE70BD00001F
:1021A0009D1000202DE9F043C1B004460D461646AF
:1021B0004FF0FF374FF4807101A8FDF7D8FF0020E2
:1021C00000902078012852D13548007810B10128BC
:1021D0004CD11CE0FFF762F880466A4601A9FFF780
:1021E0002CFC2B46BDF8002001A9012000F05EFA6E
:1021F00000212C48FEF7C6F92B480078401C2A49DC
:10220000087027480078401C254908702EE040F2ED
:1022100026212448FEF7B6F910BB0120FFF770F81D
:10222000012822D1FEF7F9FF8046FFF737F88146F3
:1022300033462A464146FFF743FC01280ED10020D1
:10224000194908701948008820F00100401C1749FE
:1022500008800120FEF78AFD002706E0012704E040
:1022600000211048FEF78EF9012700BF00BF781C3F
:1022700018B1002020700A4908700B480078042823
:102280000ADB0420084908700848008820F0010093
:1022900006490880FEF738FA384641B0BDE8F083B9
:1022A0000E00002010000020140000200C00002070
:1022B0002DE9F043C1B004460D4616464FF0FF37F6
:1022C0004FF4807101A8FDF752FF002000902078A4
:1022D000012852D13448007810B101284CD11CE0BB
:1022E000FEF7F0FF80466A4601A9FFF7A6FB2B46E2
:1022F000BDF8002001A9022000F0D8F900212B48E8
:10230000FEF740F92A480078401C29490870264801
:102310000078401C244908702EE096212348FEF7DF
:1023200031F918BB0220FEF7EBFF012823D1022070
:10233000FEF773FF8046FEF7C5FF814633462A4607
:102340004146FFF7BDFB01280ED100201849087057
:102350001848008820F00100401C1649088002201F
:10236000FEF704FD002706E0012704E000210F48E6
:10237000FEF708F9012700BF00BF781C18B1002044
:102380002070094908700A480078042808DB0420F6
:10239000074908700748008820F0010005490880B7
:1023A000384641B0BDE8F083220000202400002020
:1023B00028000020200000202DE9F04F8BB00746B8
:1023C000002009903EA090E8004CC068CDE905BE11
:1023D000CDF810A007900FF2EC0ADAE9000ACDE977
:1023E000020A0FF2E00ADAE9000ACDE9000A3848E9
:1023F0004068C0F381000A900A9820B1012804D0F7
:10240000022829D103E0334928E0324926E0304848
:10241000406800F48038B8F5803F09D12D4C2C4835
:10242000406800F40039B9F5003F02D1641000E0C3
:10243000294C27484068C0F383422548406800F093
:10244000006008B142F010020F2A01D2921C00E095
:10245000521C04FB02F101E01E4900BF00BF1C48F2
:102460004068C0F3031504A8465D21FA06F3184836
:102470004068C0F3022502A8465D23FA06FC144812
:102480004068C0F3C2251DF8056023FA06F00890E5
:1024900037B1012F06D0022F06D0032F0AD106E054
:1024A000099108E0099306E0CDF824C003E00898FC
:1024B000099000E000BF00BF09980BB0BDE8F08FA5
:1024C00000000000000000000102030406070809E4
:1024D0000010024000127A0000093D00064A02EB9B
:1024E0009011096800F01F0301229A401143024B2A
:1024F00003EB90121160704700100240064A02EB95
:102500009011096800F01F0301229A409143024B89
:1025100003EB90121160704700100240064A02EB74
:102520009011096800F01F0301229A401143024BE9
:1025300003EB90121160704700100240034A0368D9
:10254000136083889380837993717047320F0020E2
:102550002DE9F04104460F4600254EF6EE66A669C9
:10256000AE4201D10C2000E00E2009490880084647
:1025700000884FF6FF7101EA4000054908800846CF
:1025800002882146801CFDF7D9FDBDE8F0810000DE
:10259000D40E00202DE9F04106460F460024104DD0
:1025A00000BF08E0022101FB0460FDF7F1FE288076
:1025B000AD1C601CC4B21D2CF4D3094D3A35002467
:1025C0000AE006F16201022202FB0410FDF7E0FEC0
:1025D0002880AD1C601CC4B2032CF2D3BDE8F0818E
:1025E000F20E00202DE9F04105460F460024074E6B
:1025F00000BF07E0022101FB0450FDF7C9FE308057
:10260000601CC4B20A2CF5D3BDE8F081891000200B
:1026100038B5FEF757FE04460020009001202070D8
:1026200010206070CC2060800120A0800220E0801B
:102630000448FDF7ADFE0090BDF8000020810120A8
:1026400038BD00008710002038B50025002000901C
:10265000FEF738FE04460120207010206070C8206C
:1026600060800420A0800820E08000BF0FE00A49BD
:1026700001EB4500FDF78CFE009004F108000221FB
:1026800001FB0500BDF800100180681CC5B2A088E0
:10269000A842ECDC012038BD7F1000200121024A55
:1026A0001170114648707047540000202DE9F04128
:1026B00007460C4615461E46012F02D0022F0CD1AC
:1026C00005E032462946204600F0B2F805E03246E1
:1026D0002946204600F008F900BF00BFBDE8F081A0
:1026E000002000212C4A126842F480322A4B1A60E2
:1026F00000BF401C284A126802F4003119B94FF695
:10270000FF729042F5D1244A126802F400320AB9ED
:1027100000BFFEE7204A52681F4B5A601A465268B3
:102720005A601A46526842F480625A601A465268E9
:1027300022F440325A601A46526842F440325A60DB
:102740001A465268154B1A40134B5A601A46526883
:10275000134B1A43104B5A601A46126842F08072AB
:102760001A6000BF0C4A126802F00072002AF9D009
:10277000094A526822F00302074B5A601A4652680F
:1027800042F002025A6000BF034A526802F0080297
:10279000002AF9D07047000000100240FFFFC3F785
:1027A0000000280810B5FFF79BFF10BD10B50948C1
:1027B000007810B101280BD105E006480078401CD4
:1027C0000449087004E000F007F8FFF745FA00BF7D
:1027D00000BF10BD3600002030B585B0142168461A
:1027E000FDF7C5FC0025092469460020FDF7A7FF79
:1027F000012818D10198C0F30745002410E00B48C8
:1028000010F83400A84209D19DF80A00074901EBED
:10281000C4014A680DF10B01904703E0601CC4B28B
:10282000062CECDB00BF05B030BD0000B82C000862
:1028300070B504460D4616462A4621461C48FDF74B
:102840007DFC2A4606211B48FEF7D4FC184A0621C7
:102850001848FEF798FC05211648FEF7F7FA164AC5
:1028600005211448FEF78FFC324605211148FEF77A
:10287000C1FCFEF78BFA1149114800F075F90222EC
:1028800006210C48FEF71DFC042206210948FEF72C
:10289000FFFB082206210748FEF7FAFB80210848C3
:1028A00000F01CF906210348FEF7E9FA70BD0000AC
:1028B00060000020000002406001002006030600C6
:1028C0000044004010B5002211462620FFF764F9AD
:1028D000012200211120FFF75FF9022200211020C0
:1028E000FFF75AF910BD000070B504460D461646B4
:1028F0002A4621461C48FDF721FC2A4601211B4897
:10290000FEF778FC184A01211848FEF73CFC02212A
:102910001648FEF79BFA164A02211448FEF733FCCC
:10292000324602211148FEF765FCFEF73DFA1149D7
:10293000114800F019F9022201210C48FEF7C1FBF1
:10294000042201210948FEF7A3FB082201210748C0
:10295000FEF79EFB8021084800F0C0F801210348E3
:10296000FEF78DFA70BD00006102002000000240F9
:1029700061030020060306000048004010B5002255
:1029800001212720FFF708F9012211460C20FFF74B
:1029900003F9022201210D20FFF7FEF810BD00000F
:1029A0002DE9F04704460D460027B846B9460026F3
:1029B0001D49601A8C421CD006DC1C48204470B1B2
:1029C000B0F5806F1FD10FE0B0F5806F16D0B0F575
:1029D0006C4F18D10320FFF7EFFC074614E00220EC
:1029E000FFF7EAFC07460FE00220FFF7E5FC074689
:1029F0000AE00220FFF7E0FC074605E00220FFF7AF
:102A0000DBFC074600E000BF00BF07EB5500B0FB52
:102A1000F5F64FF6F07006EA000806F00F0948EAEE
:102A20000900A060BDE8F087004C004000BCFFBF7B
:102A300001464868C0F308007047000010B504461E
:102A40002049601A8C4228D006DC1F48204490B1EF
:102A5000B0F5806F33D117E0B0F5806F26D0B0F5B8
:102A60006C4F2CD140F20E30FFF758FD40F20E3083
:102A7000FFF744FD24E040F21140FFF74FFD40F224
:102A80001140FFF73BFD1BE040F21240FFF746FD0F
:102A900040F21240FFF732FD12E040F21340FFF720
:102AA0003DFD40F21340FFF729FD09E040F21440DC
:102AB000FFF734FD40F21440FFF720FD00E000BFB7
:102AC00000BF10BD004C004000BCFFBF0A46002103
:102AD000416921F040011143416170470A460021DC
:102AE000416921F08001114341617047C16841F49F
:102AF0000051C160704710B5024602EB91100068AA
:102B000001F01F040123A340184008B1012010BDAB
:102B10000020FCE70A460021416921F400711143BD
:102B2000416170470A460021416921F480711143D7
:102B30004161704710B5C1F38912825801F01F043A
:102B40000123A3409A43C1F38913C25010BD10B5AD
:102B5000C1F38912825801F01F040123A3401A43D4
:102B6000C1F38913C25010BD10B500EB9152126829
:102B7000C1F304440123A3409A4300EB91531A602C
:102B800010BD70B5024600230024C1F3891010580F
:102B900001F01F060125B54000EA050302EB915044
:102BA0000068C1F304460125B54000EA050414B1EC
:102BB0000BB1012070BD0020FCE7C26822F4C062A6
:102BC000C260C2680A43C26070470A460021C168F9
:102BD00021F004011143C1607047026922F44052A0
:102BE000026102690A43026170470A460021C16816
:102BF00021F008011143C1607047C26822F480527D
:102C0000C260C2680A43C26070470020704700007B
:102C100008B50020009022480078002838D1FEF73F
:102C20009BF800B3FEF788FB00909DF80100012897
:102C300002D0022816D10AE0FFF7EAFC1849087012
:102C40001848194908600820184908800AE0FFF769
:102C5000FBFC134908701348134908600820134906
:102C6000088000BF14E04FF47A711148FDF78AFC28
:102C700001280DD100210E48FDF784FCFEF712FB60
:102C8000074908700B480849086021200749088057
:102C900005480268054801880148FFF709FB08BD9F
:102CA00029000020550D00083000002034000020CD
:102CB0002C000020E525000801000000712100081B
:102CC00002000000A51F0008030000001D210008ED
:102CD000040000006521000880000000251F000896
:102CE0008100000079200008082D00080000002065
:102CF00060000000E8060008682D00086000002061
:102D000048300000F806000800F36F0600000000DD
:102D1000000000000000000000000000000000FFB4
:102D20005125000805000000000000000000000020
:102D30000000000000000000E5250008050000007C
:102D40000000000000000000000000000000000083
:102D50000000000000000000000000000000000073
:082D600000000000000000006B
:0400000508000105E9
:00000001FF
