:020000040800F2
:10000000C828002019010008210100082301000868
:100010002501000827010008290100080000000050
:100020000000000000000000000000002B0100089C
:100030002D010008000000002F0100088D040008B9
:1000400033010008330100083301000833010008C0
:1000500033010008330100083301000833010008B0
:1000600033010008330100083301000833010008A0
:100070002D03000881030008330100083301000844
:10008000DD030008390400083301000833010008CB
:1000900033010008A90100083301000833010008FA
:1000A0003301000833010008330100083301000860
:1000B0003301000833010008330100083301000850
:1000C0003301000833010008330100083301000840
:1000D000330100083301000839050008C105000894
:1000E000330100083301000833010008000000005C
:1000F0000000000000000000000000000000000000
:1001000033010008DFF80CD000F03CF8004800474D
:1001100035160008C82800200648804706480047D2
:10012000FEE7FEE7FEE7FEE7FEE7FEE7FEE7FEE7A7
:10013000FEE7FEE7A90400080501000840EA010304
:100140009B0703D009E008C9121F08C0042AFAD28D
:1001500003E011F8013B00F8013B521EF9D2704751
:10016000D2B201E000F8012B491EFBD270470022F9
:10017000F6E710B513460A4604461946FFF7F0FFA6
:10018000204610BD064C074D06E0E06840F0010334
:1001900094E8070098471034AC42F6D3FFF7B6FF57
:1001A000101E0008301E000810B586B0142101A8EA
:1001B000FFF7DDFF1448B0F858421449144800F026
:1001C000C5FB10B101F02DF81CE001AA0121104877
:1001D00000F0F6FB04EB84010B4A02EB81001422D1
:1001E00001A9FFF7ABFF0848B0F85802401C0649C8
:1001F000A1F858020846B0F858021E2802D1002083
:10020000A1F8580206B010BD100400208A80010039
:100210000064004070B586B004460E4615461421B1
:1002200001A8FFF7A4FF00200190029840EA0540D2
:10023000029004208DF80C0000208DF80D008DF840
:100240000E40224631460DF10F00FFF777FF0E49B1
:10025000B1F85822B1F85812491C0B4BA3F85812A8
:1002600002EB82011A4602EB8100142201A9FFF77A
:1002700065FF0548B0F858021E2803D10020024946
:10028000A1F8580206B070BD6C06002070B586B0AB
:10029000142101A8FFF76BFF002400250326052188
:1002A0001F4800F033F9012837D100BF32E01D4864
:1002B000B0F85A021B49B1F85812884229D00021DF
:1002C000174800F023F9174890F85A5205EB8500BB
:1002D000144A02EB8001142201A8FFF72FFF01A9A5
:1002E000114800F0DFFB0646032E11D00D48B0F890
:1002F0005A02401C0B49A1F85A020846B0F85A02AB
:100300001E2802D10020A1F85A02601CC4B201E0EC
:1003100002E001E0032CCADB00BF06B070BD0000A4
:10032000080000206C0600200064004010B5042284
:100330000121114800F0B6FD082201210E4800F00D
:10034000B1FD022201210C4800F085FE90B101218F
:10035000094800F00BFD40F20631084801F0F9FCB5
:1003600002220121044800F03CFE02220121024841
:1003700000F069FE10BD000000000240004800408F
:1003800010B504220221124800F08CFD082202213F
:100390000F4800F087FD022211460D4800F05BFE79
:1003A000A8B1022211460A4800F04DFE002109487A
:1003B00001F08EFC0221064800F0D8FC40F2053125
:1003C000044801F0C6FC0120034981F8000110BD7A
:1003D00000000240004800400D03002010B5042238
:1003E0000521124800F05EFD082205210F4800F0AB
:1003F00059FD022205210D4800F02DFEA8B1022270
:1004000005210A4800F01FFE0021094801F060FCA8
:100410000521064800F0AAFC40F20531044801F02D
:1004200098FC0120034981F8000110BD0000024042
:10043000004400400C01002010B5042206211148A0
:1004400000F030FD082206210E4800F02BFD0222AC
:1004500006210C4800F0FFFD90B10621094800F08C
:1004600085FC40F20631084801F073FC02220621A7
:10047000044800F0B6FD02220621024800F0E3FD28
:1004800010BD000000000240004400400548006824
:10049000401C0449086008460068401C08B9002058
:1004A000086070470400002010B51448006840F050
:1004B00001001249086008464068114908400F4988
:1004C0004860084600680F4908400C490860084623
:1004D000006820F480200860084640680A49084007
:1004E0000649486008460068064908400349086014
:1004F0004FF41F00886001F0A5FA10BD0010024003
:100500000C00FFE8FFFFF6FEFFFF00F710B5024604
:10051000002021B9074B1B681360012008E0054B40
:100520001B6814681B1B8B4201D3012000E00020D4
:1005300010BD00000400002010B501211C4801F08E
:10054000DCFB48B902211A4801F0D7FB20B903218E
:10055000174801F0D2FB10B1154801F06BFB1549AB
:10056000134801F010FC60B140F20531104801F071
:10057000E3FB0521104800F0F9FB0E490C4801F09F
:10058000F5FB0E490A4801F0FEFB80B140F206314E
:10059000074801F0D1FB0521074800F000FC40218D
:1005A000034801F095FB0549014801F0DFFB10BD50
:1005B0000044004005030500000002400603060059
:1005C00010B501211C4801F098FB48B902211A48D6
:1005D00001F093FB20B90321174801F08EFB10B105
:1005E000154801F027FB1549134801F0CCFB60B119
:1005F00040F20531104801F09FFB0221104800F045
:10060000B5FB0E490C4801F0B1FB0E490A4801F058
:10061000BAFB80B140F20631074801F08DFB0221A0
:10062000074800F0BCFB4021034801F051FB05499D
:10063000014801F09BFB10BD004800400503050088
:10064000000002400603060010B5002804DB0A077C
:10065000130E054A135406E00A07140E034A00F06D
:100660000F031B1FD45410BD00E400E018ED00E0A0
:1006700002E008C8121F08C1002AFAD1704770476B
:10068000002001E001C1121F002AFBD1704710B504
:1006900000F046FE00F058FE01F02EF800F0BAFE21
:1006A00000F0BBFD10BD10B502220021152001F0A5
:1006B0002BF810BD2DE9F04107460C4615461E46A5
:1006C00017B1012F07D105E0324629462046FFF732
:1006D000A1FD00E000BF00BFBDE8F08110B5FFF74D
:1006E000D5FD10BD10B504460548844207D140F23F
:1006F000194001F01BF940F2194001F007F910BD53
:1007000000640040014600208A69C2F3021070476D
:1007100010B50021837A012202FA03F13E4A1268E1
:1007200042F001023C4B1A603B4A1C3212688A4379
:10073000394B1C331A60C289DAB9374A0C32126855
:100740008A43354B0C331A60C288344B03EA0242A9
:1007500043881A434389304C403444F8332082881C
:100760002E4B03EA024203881A43438904EBC30376
:100770005A60C289012A1BD1274A0C3212680A43E7
:10078000254B0C331A600288244B03EA024243884B
:100790001A434389204C403444F8332082881F4B4D
:1007A00003EA0242C3881A43438904EBC3035A6035
:1007B00082893AB9184A121D12688A43164B1B1DCA
:1007C0001A6006E0144A121D12680A43124B1B1DE0
:1007D0001A6002893AB9104A143212688A430E4BE1
:1007E00014331A6006E00C4A143212680A430A4BAA
:1007F00014331A60027C012A06D1074A1C3212689F
:100800000A43054B1C331A60034A126822F00102A6
:10081000014B1A6010BD0000006600400000FFFFA1
:1008200070B502464FF6FF730020146824F00204EE
:100830001460146844F00104146000E05B1E546806
:1008400004F001040CB9002BF8D1546804F0010441
:100850000CB9002074E00C784FF0404505EA847430
:100860004D784FF0407606EA05652C438D784FF4BD
:10087000702606EA05452C43CD784FF4E00606EADB
:1008800005552C434D896D1EC5F309052C43D461D4
:100890000C79012C04D1146844F08004146003E046
:1008A000146824F0800414604C79012C04D114687D
:1008B00044F04004146003E0146824F04004146021
:1008C0008C79012C04D1146844F02004146003E0F6
:1008D000146824F020041460CC79012C04D114682D
:1008E00044F01004146003E0146824F01004146051
:1008F0000C7A012C04D1146844F00804146003E05D
:10090000146824F0080414604C7A012C04D1146893
:1009100044F00404146003E0146824F00404146038
:10092000146824F0010414604FF6FF7300E05B1EAE
:10093000546804F001040CB1002BF8D103B101207C
:1009400070BD42690A43426170470000F0B5054638
:100950000C46002600274CF2C200844205D100213B
:10096000284600F047F9064619E01348844205D1AD
:100970000121284600F03EF9064610E00F48844267
:1009800004D12846FFF7BEFE064608E005EB14300A
:100990000068C4F384120121914000EA01066869ED
:1009A00004F01F020121914000EA010716B10FB1C6
:1009B0000120F0BD0020FCE7C5000100CB80010054
:1009C00010B500F5D87303EB01131B6803F00403A3
:1009D0001372137A3BB900F5D87303EB01131B684C
:1009E0005B0D136006E000F5D87303EB01131B6881
:1009F000DB08536000F5D87303EB01131B6803F0A9
:100A00000203537200F5DA7303EB01131B681B0A30
:100A1000D37400F5DA7303EB01131B6803F00F03C3
:100A2000937200F5DC7303EB01131B68D37200F5BE
:100A3000DC7303EB01131B681C0A147300F5DC73F1
:100A400003EB01131B681C0C547300F5DC7303EB00
:100A500001131B681C0E947300F5DE7303EB011386
:100A60001B68D37300F5DE7303EB01131B681C0ACC
:100A7000147400F5DE7303EB01131B681C0C547433
:100A800000F5DE7303EB01131B681C0E947421B98F
:100A9000C36843F02003C36003E0036943F020030D
:100AA000036110BD30B502460B460021906800F08E
:100AB0008060B0F1806F00D110E0906800F00060BD
:100AC000B0F1006F01D1012108E0906800F0805082
:100AD000B0F1805F01D1022100E00321032901D19F
:100AE000032030BD02F5C07000EB0110006800F07B
:100AF000010402F5C07000EB01100460187A88B997
:100B000018883B4C04EA40505C7A204302F5C074DC
:100B100004EB01142468204302F5C07404EB0114B3
:100B2000206013E06FF00704586804EAC0001C7AE4
:100B300020435C7A204302F5C07404EB011424685E
:100B4000204302F5C07404EB0114206002F5C2706A
:100B500000EB0110006820F00F0402F5C27000EBFA
:100B60000110046002F5C27000EB011000689C7A6D
:100B7000204302F5C27404EB01142060987B4FF00F
:100B80007F4404EA00605C7B4FF47F0505EA04447F
:100B900020431C7B2D1205EA04242043DC7A2043E9
:100BA00002F5C47404EB01142060987C2C0404EA60
:100BB00000605C7C2D0205EA044420431C7C2D125D
:100BC00005EA04242043DC7B204302F5C67404EBD1
:100BD0000114206002F5C07000EB0110006840F0C5
:100BE000010402F5C07000EB01100460084678E7CC
:100BF0000000E0FF0246002019B9D36803F00300AB
:100C000004E0012902D1136903F00300704710B515
:100C1000024632B1012A16D0022A20D0032A41D13D
:100C20002EE000234B71CB718B7140F2FF334B816F
:100C300000230B724B7002238B700023CB700B715F
:100C40004B720B7030E00123CB8100230B740B81BE
:100C50000B804B808B80CB808B814B8124E00020EC
:100C600005E0002401F10B031C54431CD8B20828F2
:100C7000F7D300238B724B600B724B720B6013E047
:100C8000002005E0002401F10B031C54431CD8B2E2
:100C90000828F7D300238B724B600B72CB744B7216
:100CA0000B6001E000BFFEE700BF10BD10B54FF4C0
:100CB00080710448FFF75BFA0020024981F80001C7
:100CC00010BD00000C01002010B54FF480710448E5
:100CD000FFF74DFA0020024981F8000110BD000025
:100CE0000D0300202DE9F84304460F4615461E4625
:100CF000DDF820801B48009024B1012C03D0022C89
:100D000007D103E005E01748009002E01648009084
:100D100000BF00BF009800F093FF3946009800F034
:100D200041FF2946009801F06AF83146009801F029
:100D300056F84146009801F042F80021009800F072
:100D4000F3FF0021009800F0E7FF0421009801F074
:100D50003EF80821009801F04AF8009800F0C8FF1A
:100D6000BDE8F883004400400048004070B50546E7
:100D70000C462146284600F0DBF908B900BFFEE723
:100D800004EB8400810005F10800405820F00101C7
:100D900004EB8400820005F10800815070BD70B53D
:100DA00005460C462146284600F0C2F908B900BFA6
:100DB000FEE704EB8400810005F10800405840F094
:100DC000010104EB8400820005F10800815070BD30
:100DD00070B505460C462146284600F0A9F908B929
:100DE00000BFFEE704EB8400810005F108004058D5
:100DF00020F0200104EB8400820005F108008150FE
:100E000070BD70B505460C462146284600F090F9A5
:100E100008B900BFFEE704EB8400810005F108007B
:100E2000405840F0200104EB8400820005F10800E6
:100E3000815070BD70B504460D462946204600F02D
:100E400077F908B900BFFEE705EB8500810004F1E2
:100E50000800405820F0010105EB8500820004F1F4
:100E600008008150002105EB8500820004F1080094
:100E7000815005EB8500820004F10C00815005EBE8
:100E80008500820004F11000815005EB850082008E
:100E900004F1140081506068AA000F2191400843BA
:100EA000606070BD10B543688C0002FA04F42343FF
:100EB000436010BD2DE9F04104460D461646294613
:100EC000204600F035F908B900BFFEE705EB8500C4
:100ED000820004F110003168815005EB850082002A
:100EE00004F11400B1688150308A81B205EB8500AD
:100EF000820004F10C00815005EB8500810004F1B3
:100F00000800475827F47C57F168706808437169F6
:100F10000843074305EB8500810004F108004750B2
:100F2000307E01280ED105EB8500810004F1080018
:100F3000405840F0400105EB8500820004F10800B4
:100F400081500DE005EB8500810004F10800405858
:100F500020F0400105EB8500820004F1080081507B
:100F6000707E01280ED105EB8500810004F1080098
:100F7000405840F0800105EB8500820004F1080034
:100F800081500DE005EB8500810004F10800405818
:100F900020F0800105EB8500820004F108008150FB
:100FA000B07E70B905EB8500810004F1080040585F
:100FB00020F0100105EB8500820004F1080081504B
:100FC0000DE005EB8500810004F10800405840F079
:100FD000100105EB8500820004F108008150BDE896
:100FE000F08170B504460D4616462946204600F0AD
:100FF0009FF808B900BFFEE705EB8500810004F10A
:1010000008004058B04305EB85018A0004F108014F
:10101000885070BD70B504460D46164629462046D8
:1010200000F086F808B900BFFEE705EB85008100F7
:1010300004F108004058304305EB85018A0004F1B3
:101040000801885070BD10B543688C0002FA04F4A2
:101050002343436010BD70B5034600BF00BF022AA2
:1010600004D0042A11D0082A2DD11DE018688E0062
:1010700002FA06F600EA060501EB8100860003F19C
:101080000800805900F002041FE018688E0002FA80
:1010900006F600EA060501EB8100860003F1080070
:1010A000805900F0040410E018688E0002FA06F679
:1010B00000EA060501EB8100860003F10800805973
:1010C00000F0080401E000BFFEE700BF15B10CB15D
:1010D000012070BD0020FCE770B506460C461546A1
:1010E0002146304600F024F808B900BFFEE704EBC3
:1010F0008400810006F11400455070BD70B50546AE
:101100000C462146284600F013F808B900BFFEE758
:1011100004EB8400810005F10800405820F4804170
:1011200004EB8400820005F10800815070BD0000CE
:1011300002460120034B9A4202D1042900DD00201F
:10114000704700000004024070B506460C46154684
:1011500021463046FFF7ECFF08B900BFFEE7A9B211
:1011600004EB8400820006F10C00815070BDF0B5E4
:10117000044616460025002201F00F0501F0100775
:1011800007B1354300201EE0012787401F40C7B14B
:1011900022684FEA800C0F2707FA0CF7BA43870042
:1011A00005FA07F73A43282904D1012787401F4051
:1011B000676105E0482903D1012787401F40276167
:1011C0002260471CB8B20828DED3082022E001279D
:1011D00087401F40E7B16268A0F108074FEA870C1B
:1011E0000F2707FA0CF7BA43A0F10807BF0005FA6A
:1011F00007F73A43282904D1012787401F40676138
:1012000005E0482903D1012787401F40276162601C
:10121000471CB8B21028DAD3F0BD10B500F001F8C1
:1012200010BD10B500F062F800F004F800F03CF8D2
:1012300010BD00000EB569460020FFF7E8FC194814
:10124000FFF750FA00208DF8040001208DF805000A
:1012500000208DF806008DF807008DF808008DF845
:10126000090001208DF8000000208DF80100042005
:101270008DF8020002208DF803003020ADF80A003E
:1012800069460848FFF7CCFA69460648FFF7C8FAEE
:1012900010210448FFF755FB4FF480610148FFF728
:1012A00050FB0EBD0064004000B585B069460120CA
:1012B000FFF7ADFC0020ADF80A00ADF80C000120EE
:1012C000ADF80E000020ADF80000ADF80200ADF85A
:1012D0000400ADF806000120ADF808008DF81000FC
:1012E0006846FFF715FA05B000BD000010B540F2E2
:1012F000026000F0FBFA40F2197000F0F7FA4FF4C8
:101300000063032248210548FFF731FF4FF4805363
:10131000032218210148FFF72AFF10BD00080140F1
:1013200010B540F2046000F0E1FA4FF400530322DC
:1013300010210448FFF71BFF4FF4005001490861DA
:1013400010BD00000010014010B5124800684FF4B5
:101350007A71B0FBF1F4601EB0F1807F01D30120FF
:101360000FE0601E4FF0E02148610F214FF0FF3089
:10137000FFF76AF900204FF0E0218861072008613B
:10138000002008B100BFFEE70021481EFFF75CF90E
:1013900010BD00000000002010B500F003F800F0C0
:1013A00051F810BD10B540F2026000F09FFA40F213
:1013B000117000F09BFA0423032218210448FFF760
:1013C000D6FE0823032204210148FFF7D0FE10BDFA
:1013D0000008014010B500F003F800F0AFF810BDB0
:1013E00010B540F2036000F081FA40F2127000F094
:1013F0007DFA4FF48063032218210548FFF7B7FEFA
:101400004FF40063032204210148FFF7B0FE10BD32
:10141000000C014008B5FFF7BFFF0020034602465D
:101420004FF4E13100900120FFF75CFCFFF7D2FFA1
:101430000020034602464FF4E13100900220FFF7FE
:1014400051FC08BD00B587B04FF4A06000F04EFA23
:1014500006213648FFF7EEFC01208DF81A003448CB
:10146000029001208DF81900002003904FF4807045
:1014700004903048009000208DF8180001904FF43F
:10148000405005906A4606212848FFF713FD0521C4
:101490002648FFF7CFFC00208DF81A00264802905E
:1014A00001208DF81900002003904FF48070049003
:1014B0002048009000208DF8180001904FF4405013
:1014C00005906A4605211948FFF7F4FC06211748E4
:1014D000FFF77EFC06211548FFF710FE02220621C9
:1014E0001248FFF797FD042206211048FFF779FD07
:1014F000082206210D48FFF774FD05210B48FFF770
:1015000080FC05210948FFF7F9FD02220521074863
:10151000FFF780FD042205210448FFF762FD082241
:1015200005210248FFF75DFD07B000BD0000024045
:101530000C000020044400400C01002000B587B0DE
:101540004FF4A06000F0D2F901213648FFF772FC99
:1015500001208DF81A003448029001208DF81900FE
:10156000002003904FF480700490304800900020D9
:101570008DF8180001904FF4405005906A46012103
:101580002848FFF797FC02212648FFF753FC00206C
:101590008DF81A002648029001208DF819000020CD
:1015A00003904FF4807004902048009000208DF844
:1015B000180001904FF4405005906A4602211948E6
:1015C000FFF778FC01211748FFF71BFC01211548A4
:1015D000FFF794FD022201211248FFF71BFD0422B0
:1015E00001211048FFF7FDFC082201210D48FFF7FB
:1015F000F8FC02210B48FFF704FC02210948FFF721
:101600007DFD022211460748FFF704FD0422022156
:101610000448FFF7E6FC082202210248FFF7E1FC3C
:1016200007B000BD000002400D0200200448004049
:101630000D03002086B000240020059029A103C9D5
:10164000CDE9030129A103C9CDE901010C2500263B
:10165000FFF71DF845E041F2883105A8FEF756FF77
:1016600001283CD1002105A8FEF750FF0CB901204C
:1016700000E000200446012C03D140031D4908610D
:1016800003E04FF400501B49486116B1012E1DD1F3
:101690000EE008231A4603A9012000F057F9082399
:1016A0001A4603A9022000F051F9701CC6B20DE0E1
:1016B0000A23082201A9012000F048F90A23082280
:1016C00001A9022000F042F9002600BF00BF681CFB
:1016D000C5B22B4603AA08210020FEF7EBFFFEF758
:1016E000FDFFB8E701020304050607080B0C0D0E09
:1016F0000F1011120010014010B500F0EBF900F0CE
:101700003FFAFEF7D0FF10BD2DE9F04103460D462C
:10171000164600240027A0462448006800F4E06034
:10172000B0F5A06F15D006DCB0F5407F18D0B0F54D
:10173000806F19D110E0B0F5C06F06D0B0F5E06F42
:1017400012D100274FF0040815E001274FF00308DD
:1017500011E00227B8460EE003274FF001080AE027
:1017600004274FF0000806E04FF4A06000F022F8D4
:101770000227B84600BF00BFC7F1040005FA00F415
:10178000C8F104010F20C840304004432401084838
:10179000C45403F01F01012088405911890001F150
:1017A000E021C1F80001BDE8F08100000CED00E08F
:1017B00000E400E002490143024A11607047000062
:1017C0000000FA050CED00E02DE9F04F8BB0074664
:1017D000002009903EA090E8004CC068CDE905BE0D
:1017E000CDF810A007900FF2EC0ADAE9000ACDE973
:1017F000020A0FF2E00ADAE9000ACDE9000A3848E5
:101800004068C0F381000A900A9820B1012804D0F2
:10181000022829D103E0334928E0324926E0304844
:10182000406800F48038B8F5803F09D12D4C2C4831
:10183000406800F40039B9F5003F02D1641000E0BF
:10184000294C27484068C0F383422548406800F08F
:10185000006008B142F010020F2A01D2921C00E091
:10186000521C04FB02F101E01E4900BF00BF1C48EE
:101870004068C0F3031504A8465D21FA06F3184832
:101880004068C0F3022502A8465D23FA06FC14480E
:101890004068C0F3C2251DF8056023FA06F00890E1
:1018A00037B1012F06D0022F06D0032F0AD106E050
:1018B000099108E0099306E0CDF824C003E00898F8
:1018C000099000E000BF00BF09980BB0BDE8F08FA1
:1018D00000000000000000000102030406070809E0
:1018E0000010024000127A0000093D00064A02EB97
:1018F0009011096800F01F0301229A401143024B26
:1019000003EB90121160704700100240064A02EB90
:101910009011096800F01F0301229A409143024B85
:1019200003EB90121160704700100240064A02EB70
:101930009011096800F01F0301229A401143024BE5
:1019400003EB901211607047001002402DE9F04146
:1019500007460C4615461E46012F02D0022F0CD119
:1019600005E032462946204600F070F805E0324690
:101970002946204600F0C0F800BF00BFBDE8F08156
:10198000002000212C4A126842F480322A4B1A604F
:1019900000BF401C284A126802F4003119B94FF602
:1019A000FF729042F5D1244A126802F400320AB95B
:1019B00000BFFEE7204A52681F4B5A601A46526821
:1019C0005A601A46526842F480625A601A46526857
:1019D00022F440325A601A46526842F440325A6049
:1019E0001A465268154B1A40134B5A601A465268F1
:1019F000134B1A43104B5A601A46126842F0807219
:101A00001A6000BF0C4A126802F00072002AF9D076
:101A1000094A526822F00302074B5A601A4652687C
:101A200042F002025A6000BF034A526802F0080204
:101A3000002AF9D07047000000100240FFFFC3F7F2
:101A40000000280810B5FFF79BFF10BD70B50446D5
:101A50000D4616462A4621461948FEF76FFB2A46D0
:101A600006211848FFF770FB05211648FFF77EF99D
:101A7000154A05211348FFF72FFB3246052111486F
:101A8000FFF762FBFFF712F91049114800F06EF9F9
:101A9000022206210B48FFF7BDFA0422062109485D
:101AA000FFF79FFA082206210648FFF79AFA8021DD
:101AB000074800F015F906210248FFF770F970BDDC
:101AC0000C000020000002400C010020060306006C
:101AD0000044004010B5002211462620FFF714FEF6
:101AE000012200211120FFF70FFE02220021102009
:101AF000FFF70AFE10BD000070B504460D461646FD
:101B00002A4621461948FEF719FB2A4601211848A2
:101B1000FFF71AFB02211648FFF728F9154A0221A0
:101B20001348FFF7D9FA324602211148FFF70CFBA0
:101B3000FFF7CAF81049114800F018F902220121F4
:101B40000B48FFF767FA042201210948FFF749FA19
:101B5000082201210648FFF744FA8021074800F0D7
:101B6000BFF801210248FFF71AF970BD0D020020ED
:101B7000000002400D03002006030600004800405C
:101B800010B5002201212720FFF7BEFD01221146DA
:101B90000C20FFF7B9FD022201210D20FFF7B4FD53
:101BA00010BD00002DE9F04704460D460027B84659
:101BB000B94600261D49601A8C421CD006DC1C4820
:101BC000204470B1B0F5806F1FD10FE0B0F5806F89
:101BD00016D0B0F56C4F18D10320FFF7F5FD07467E
:101BE00014E00220FFF7F0FD07460FE00220FFF7A8
:101BF000EBFD07460AE00220FFF7E6FD074605E099
:101C00000220FFF7E1FD074600E000BF00BF07EB41
:101C10005500B0FBF5F64FF6F07006EA000806F046
:101C20000F0948EA0900A060BDE8F087004C0040B9
:101C300000BCFFBF01464868C0F3080070470000C1
:101C400010B504462049601A8C4228D006DC1F4893
:101C5000204490B1B0F5806F33D117E0B0F5806FBC
:101C600026D0B0F56C4F2CD140F20E30FFF75EFE5F
:101C700040F20E30FFF74AFE24E040F21140FFF739
:101C800055FE40F21140FFF741FE1BE040F21240CA
:101C9000FFF74CFE40F21240FFF738FE12E040F230
:101CA0001340FFF743FE40F21340FFF72FFE09E019
:101CB00040F21440FFF73AFE40F21440FFF726FED0
:101CC00000E000BF00BF10BD004C004000BCFFBFE3
:101CD0000A460021416921F04001114341617047EA
:101CE0000A460021416921F080011143416170479A
:101CF000C16841F40051C160704710B5024602EB63
:101D00009110006801F01F040123A340184008B19E
:101D1000012010BD0020FCE70A460021416921F4A2
:101D200000711143416170470A460021416921F465
:101D3000807111434161704710B5C1F38912825817
:101D400001F01F040123A3409A43C1F38913C25039
:101D500010BD10B5C1F38912825801F01F04012390
:101D6000A3401A43C1F38913C25010BD10B500EB54
:101D700091521268C1F304440123A3409A4300EB3B
:101D800091531A6010BD70B5024600230024C1F3C0
:101D90008910105801F01F060125B54000EA05031F
:101DA00002EB91500068C1F304460125B54000EAFA
:101DB000050414B10BB1012070BD0020FCE7C2681E
:101DC00022F4C062C260C2680A43C26070470A4619
:101DD0000021C16821F004011143C160704702690C
:101DE00022F44052026102690A43026170470A46C6
:101DF0000021C16821F008011143C1607047C26829
:101E000022F48052C260C2680A43C2607047000078
:101E1000301E0008000000200C00000070060008C2
:101E20003C1E00080C000020BC28000080060008B2
:0C1E300000F36F0600000000000000003E
:0400000508000105E9
:00000001FF
