:020000040800F2
:100000001022002019010008210100082301000826
:100010002501000827010008290100080000000050
:100020000000000000000000000000002B0100089C
:100030002D010008000000002F010008FD0100084C
:1000400033010008330100083301000833010008C0
:1000500033010008330100083301000833010008B0
:1000600033010008330100083301000833010008A0
:100070003301000833010008330100083301000890
:1000800033010008A901000833010008330100080A
:100090003301000833010008330100083301000870
:1000A0003301000833010008330100083301000860
:1000B0003301000833010008330100083301000850
:1000C0003301000833010008330100083301000840
:1000D0003301000833010008A902000833010008B9
:1000E000330100083301000833010008000000005C
:1000F0000000000000000000000000000000000000
:1001000033010008DFF80CD000F03CF8004800474D
:10011000B10A000810220020064880470648004720
:10012000FEE7FEE7FEE7FEE7FEE7FEE7FEE7FEE7A7
:10013000FEE7FEE7190200080501000840EA010396
:100140009B0703D009E008C9121F08C0042AFAD28D
:1001500003E011F8013B00F8013B521EF9D2704751
:10016000D2B201E000F8012B491EFBD270470022F9
:10017000F6E710B513460A4604461946FFF7F0FFA6
:10018000204610BD064C074D06E0E06840F0010334
:1001900094E8070098471034AC42F6D3FFF7B6FF57
:1001A0004C1100086C11000810B5042206211148FA
:1001B00000F0DDF9082206210E4800F0D8F90222ED
:1001C00006210C4800F0ACFA90B10621094800F075
:1001D0004BF940F20631084800F059FF022206218F
:1001E000044800F063FA02220621024800F090FA67
:1001F00010BD0000000002400044004005480068B7
:10020000401C0449086008460068401C08B90020EA
:10021000086070470400002010B51448006840F0E2
:1002200001001249086008464068114908400F491A
:100230004860084600680F4908400C4908600846B5
:10024000006820F480200860084640680A49084099
:1002500006494860084600680649084003490860A6
:100260004FF41F00886000F0F7FD10BD0010024041
:100270000C00FFE8FFFFF6FEFFFF00F710B5024697
:10028000002021B9074B1B681360012008E0054BD3
:100290001B6814681B1B8B4201D3012000E0002067
:1002A00010BD00000400002008B5002000900121CE
:1002B000204800F0C0FE48B902211E4800F0BBFEF5
:1002C00020B903211B4800F0B6FE10B1194800F018
:1002D00053FE1949174800F0F4FEB8B140F2053159
:1002E000144800F0C7FE134800F046FEC0B200906C
:1002F0009DF80010012000F079FA0F490D4800F038
:10030000D3FE40F205310B4800F0C1FE0B4909480D
:1003100000F0D7FE68B140F20631064800F0AAFEB0
:1003200040F20531034800F0B2FE0449014800F0F4
:10033000BBFE08BD0044004005030500060306009F
:10034000014A024900F027B83508000808000020DB
:1003500010B5002804DB0A07130E054A135406E003
:100360000A07140E034A00F00F031B1FD45410BDDC
:1003700000E400E018ED00E002E008C8121F08C128
:10038000002AFAD170477047002001E001C1121F16
:10039000002AFBD170472DE9F04116460F4604466E
:1003A000002503E03946B047641C6D1C2078002806
:1003B000F8D12846BDE8F08110B500F0A3FA00F0AE
:1003C000B5FA00F0AFFB00F011FB10BD2DE9F843CA
:1003D00004460F4615461E46DDF820802048009052
:1003E00024B1012C03D0022C07D103E005E01C4806
:1003F000009002E01B48009000BF00BF009800F092
:10040000C5FD3946009800F06FFD2946009800F0C0
:1004100094FE3146009800F080FE4146009800F0BE
:100420006CFE0021009800F01DFE0021009800F0F5
:1004300011FE0421009800F068FE0821009800F0E9
:1004400074FE40F20531009800F021FE009800F0A3
:10045000EDFD8021009800F0E1FDBDE8F88300008B
:10046000004400400048004070B505460C46214657
:10047000284600F0AFF908B900BFFEE704EB84009E
:10048000810005F10800405820F0010104EB8400D0
:10049000820005F10800815070BD70B505460C461C
:1004A0002146284600F096F908B900BFFEE704EBA4
:1004B0008400810005F10800405840F0010104EB80
:1004C0008400820005F10800815070BD70B50546BA
:1004D0000C462146284600F07DF908B900BFFEE72A
:1004E00004EB8400810005F10800405820F0200151
:1004F00004EB8400820005F10800815070BD70B5E6
:1005000004460D462946204600F064F908B900BFAC
:10051000FEE705EB8500810004F10800405820F05B
:10052000010105EB8500820004F1080081500021E3
:1005300005EB8500820004F10800815005EB850081
:10054000820004F10C00815005EB8500820004F16B
:100550001000815005EB8500820004F114008150E9
:100560006068AA000F2191400843606070BD10B51B
:1005700043688C0002FA04F42343436010BD2DE964
:10058000F04104460D4616462946204600F022F961
:1005900008B900BFFEE705EB8500820004F11000FA
:1005A0003168815005EB8500820004F11400B168C8
:1005B0008150308A81B205EB8500820004F10C0085
:1005C000815005EB8500810004F10800475827F4AD
:1005D0007C57F1687068084371690843074305EB6D
:1005E0008500810004F108004750307E01280ED1BB
:1005F00005EB8500810004F10800405840F04001FF
:1006000005EB8500820004F1080081500DE005EB48
:100610008500810004F10800405820F0400105EBFE
:100620008500820004F108008150707E01280ED1FF
:1006300005EB8500810004F10800405840F080017E
:1006400005EB8500820004F1080081500DE005EB08
:100650008500810004F10800405820F0800105EB7E
:100660008500820004F108008150B07E70B905EB6E
:100670008500810004F10800405820F0100105EBCE
:100680008500820004F1080081500DE005EB850033
:10069000810004F10800405840F0100105EB85008E
:1006A000820004F108008150BDE8F08170B5044675
:1006B0000D4616462946204600F08CF808B900BFC2
:1006C000FEE705EB8500810004F108004058B043C7
:1006D00005EB85018A0004F10801885070BD70B5F2
:1006E00004460D4616462946204600F073F808B920
:1006F00000BFFEE705EB8500810004F108004058CB
:10070000304305EB85018A0004F10801885070BD73
:1007100010B543688C0002FA04F42343436010BD13
:1007200070B5034600BF00BF022A04D0042A11D0CE
:10073000082A2DD11DE018688E0002FA06F600EA9C
:10074000060501EB8100860003F10800805900F0E6
:1007500002041FE018688E0002FA06F600EA060599
:1007600001EB8100860003F10800805900F00404C9
:1007700010E018688E0002FA06F600EA060501EBA2
:100780008100860003F10800805900F0080401E0B0
:1007900000BFFEE700BF15B10CB1012070BD002005
:1007A000FCE770B505460C462146284600F012F8D5
:1007B00008B900BFFEE704EB8400810005F10800E2
:1007C000405820F4804104EB8400820005F10800C9
:1007D000815070BD02460120034B9A4202D1042988
:1007E00000DD0020704700000004024070B50446A0
:1007F0000D46012C02D0022C17D115E00C48B0F8A0
:100800000011B0F80001401C094AA2F8000110468E
:100810004554B0F80001B0F5807F04D14FF48071E9
:100820001046FFF7A4FC00E000BF00BF70BD000051
:100830000C01002070B504460D46E1B2054800F0F9
:10084000A0FB00BF0721034800F0F5FB0028F9D00A
:10085000204670BD00480040F0B50446164600250D
:10086000002201F00F0501F0100707B13543002009
:100870001EE0012787401F40C7B122684FEA800C65
:100880000F2707FA0CF7BA43870005FA07F73A4330
:10089000282904D1012787401F40676105E04829C6
:1008A00003D1012787401F4027612260471CB8B24F
:1008B0000828DED3082022E0012787401F40E7B147
:1008C0006268A0F108074FEA870C0F2707FA0CF7B8
:1008D000BA43A0F10807BF0005FA07F73A432829F1
:1008E00004D1012787401F40676105E0482903D1F3
:1008F000012787401F4027616260471CB8B210285B
:10090000DAD3F0BD10B540F2046000F001FA4FF404
:100910000053032210210448FFF79EFF4FF40050BC
:100920000149086110BD00000010014010B51248D7
:1009300000684FF47A71B0FBF1F4601EB0F1807F73
:1009400001D301200FE0601E4FF0E02148610F212C
:100950004FF0FF30FFF7FCFC00204FF0E0218861F2
:1009600007200861002008B100BFFEE70021481EF3
:10097000FFF7EEFC10BD00000000002010B500F0F5
:1009800003F800F04BF810BD10B540F2026000F023
:10099000BFF940F2117000F0BBF9042303221821C3
:1009A0000448FFF759FF0823032204210148FFF7F9
:1009B00053FF10BD0008014010B540F2036000F085
:1009C000A7F940F2127000F0A3F94FF480630322FC
:1009D00018210548FFF740FF4FF40063032204216C
:1009E0000148FFF739FF10BD000C014008B5FFF7C3
:1009F000C5FF0020034602464FF4E131009001207C
:100A0000FFF7E4FCFFF7D8FF0020034602464FF44F
:100A1000E13100900220FFF7D9FC08BD00B587B096
:100A20004FF4A06000F074F906211E48FFF767FD3F
:100A300001208DF81A001C48029001208DF8190041
:100A4000002003904FF4807004901848009000201C
:100A50008DF8180001904FF4405005906A46062129
:100A60001048FFF78CFD06210E48FFF72FFD0621E9
:100A70000C48FFF796FE022206210A48FFF72FFED8
:100A8000042206210748FFF711FE08220621054827
:100A9000FFF70CFE80210548001F00F0BFFA07B0E9
:100AA00000BD0000000002400C0000200444004093
:100AB0000EB500240020029014A103C9CDE9000165
:100AC000FFF77AFC21E04FF47A7102A8FFF7D6FB1A
:100AD00001281AD1002102A8FFF7D0FB0CB9012090
:100AE00000E000200446012C03D1400309490861BD
:100AF00003E04FF400500749486107A0FFF720FCCE
:100B000008226946012000F033F9DCE70102030402
:100B1000050607080010014068656C6C6F207A6C50
:100B20006400000010B500F0D3F910BD2DE9F041CC
:100B300003460D46164600240027A04624480068B8
:100B400000F4E060B0F5A06F15D006DCB0F5407F92
:100B500018D0B0F5806F19D110E0B0F5C06F06D095
:100B6000B0F5E06F12D100274FF0040815E001271F
:100B70004FF0030811E00227B8460EE003274FF0BC
:100B800001080AE004274FF0000806E04FF4A060D7
:100B900000F022F80227B84600BF00BFC7F10400EA
:100BA00005FA00F4C8F104010F20C84030400443A6
:100BB00024010848C45403F01F0101208840591142
:100BC000890001F1E021C1F80001BDE8F0810000D9
:100BD0000CED00E000E400E002490143024A11602C
:100BE000704700000000FA050CED00E02DE9F04F21
:100BF0008BB00746002009903EA090E8004CC068EA
:100C0000CDE905BECDF810A007900FF2EC0ADAE9A5
:100C1000000ACDE9020A0FF2E00ADAE9000ACDE99A
:100C2000000A38484068C0F381000A900A9820B151
:100C3000012804D0022829D103E0334928E03249B1
:100C400026E03048406800F48038B8F5803F09D18C
:100C50002D4C2C48406800F40039B9F5003F02D112
:100C6000641000E0294C27484068C0F383422548BF
:100C7000406800F0006008B142F010020F2A01D273
:100C8000921C00E0521C04FB02F101E01E4900BF6F
:100C900000BF1C484068C0F3031504A8465D21FA54
:100CA00006F318484068C0F3022502A8465D23FAFF
:100CB00006FC14484068C0F3C2251DF8056023FAFD
:100CC00006F0089037B1012F06D0022F06D0032F6F
:100CD0000AD106E0099108E0099306E0CDF824C0A6
:100CE00003E00898099000E000BF00BF09980BB02E
:100CF000BDE8F08F000000000000000001020304C6
:100D0000060708090010024000127A0000093D00A1
:100D1000064A02EB9011096800F01F0301229A4075
:100D20001143024B03EB9012116070470010024018
:100D3000064A02EB9011096800F01F0301229A4055
:100D40009143024B03EB9012116070470010024078
:100D5000064A02EB9011096800F01F0301229A4035
:100D60001143024B03EB90121160704700100240D8
:100D700070B506460C461546012E02D0022E06D14D
:100D800004E02946204600F06BF800E000BF00BFF9
:100D900070BD0000002000212C4A126842F480320D
:100DA0002A4B1A6000BF401C284A126802F4003126
:100DB00019B94FF6FF729042F5D1244A126802F435
:100DC00000320AB900BFFEE7204A52681F4B5A6042
:100DD0001A4652685A601A46526842F480625A6053
:100DE0001A46526822F440325A601A46526842F457
:100DF00040325A601A465268154B1A40134B5A60DB
:100E00001A465268134B1A43104B5A601A4612681E
:100E100042F080721A6000BF0C4A126802F0007241
:100E2000002AF9D0094A526822F00302074B5A609F
:100E30001A46526842F002025A6000BF034A5268E2
:100E400002F00802002AF9D07047000000100240AA
:100E5000FFFFC3F70000280810B5FFF79BFF10BD88
:100E600070B505460C46224629461548FFF766F937
:100E7000134814490860A0B212498C39C1F88400A3
:100E80001149124800F010F9022206210D488C3851
:100E9000FFF725FC042206210A488C38FFF706FCE0
:100EA0000822062107488C38FFF700FC80210748FC
:100EB00000F0B4F8062103488C38FFF7EEFA70BD55
:100EC0000C0000208C000240060306000044004095
:100ED00010B5002211462620FFF728FE012200212E
:100EE0001120FFF723FE10BD2DE9F04704460D4603
:100EF0000027B846B94600261D49601A8C421CD00E
:100F000006DC1C48204470B1B0F5806F1FD10FE0A3
:100F1000B0F5806F16D0B0F56C4F18D10320FFF7F5
:100F200065FE074614E00220FFF760FE07460FE06B
:100F30000220FFF75BFE07460AE00220FFF756FE9D
:100F4000074605E00220FFF751FE074600E000BF1C
:100F500000BF07EB5500B0FBF5F64FF6F07006EA60
:100F6000000806F00F0948EA0900A060BDE8F08714
:100F7000004C004000BCFFBF01464868C0F30800B9
:100F80007047C1F3080242607047000010B5044684
:100F90002049601A8C4228D006DC1F48204490B1BA
:100FA000B0F5806F33D117E0B0F5806F26D0B0F583
:100FB0006C4F2CD140F20E30FFF7CAFE40F20E30DB
:100FC000FFF7B6FE24E040F21140FFF7C1FE40F209
:100FD0001140FFF7ADFE1BE040F21240FFF7B8FEF4
:100FE00040F21240FFF7A4FE12E040F21340FFF778
:100FF000AFFE40F21340FFF79BFE09E040F21440C1
:10100000FFF7A6FE40F21440FFF792FE00E000BF9B
:1010100000BF10BD004C004000BCFFBF0A460021CD
:10102000416921F08001114341617047C16841F479
:101030000051C160704710B5024602EB9110006884
:1010400001F01F040123A340184008B1012010BD86
:101050000020FCE70A460021416921F40071114398
:10106000416170470A460021416921F480711143B2
:101070004161704710B5C1F38912825801F01F0415
:101080000123A3409A43C1F38913C25010BD10B588
:10109000C1F38912825801F01F040123A3401A43AF
:1010A000C1F38913C25010BD10B500EB9152126804
:1010B000C1F304440123A3409A4300EB91531A6007
:1010C00010BD70B5024600230024C1F389101058EA
:1010D00001F01F060125B54000EA050302EB91501F
:1010E0000068C1F304460125B54000EA050414B1C7
:1010F0000BB1012070BD0020FCE7C26822F4C06281
:10110000C260C2680A43C26070470A460021C168D3
:1011100021F004011143C1607047026922F440527A
:10112000026102690A43026170470A460021C168F0
:1011300021F008011143C1607047C26822F4805257
:10114000C260C2680A43C260704700006C110008A8
:10115000000000200C00000078030008781100084F
:101160000C000020042200008803000800F36F0632
:08117000000000000000000077
:0400000508000105E9
:00000001FF
