:020000040800F2
:10000000F82B002019010008210100082301000835
:100010002501000827010008290100080000000050
:100020000000000000000000000000002B0100089C
:100030002D010008000000002F0100080505000840
:1000400033010008330100083301000833010008C0
:1000500033010008330100083301000833010008B0
:1000600033010008330100083301000833010008A0
:10007000A5030008F9030008330100083301000854
:1000800055040008B10400083301000833010008DA
:1000900033010008A90100083301000833010008FA
:1000A0003301000833010008330100083301000860
:1000B0003301000833010008330100083301000850
:1000C0003301000833010008330100083301000840
:1000D0003301000833010008B105000839060008A3
:1000E000330100083301000833010008000000005C
:1000F0000000000000000000000000000000000000
:1001000033010008DFF80CD000F03CF8004800474D
:100110002D190008F82B00200648804706480047A4
:10012000FEE7FEE7FEE7FEE7FEE7FEE7FEE7FEE7A7
:10013000FEE7FEE7210500080501000840EA01038B
:100140009B0703D009E008C9121F08C0042AFAD28D
:1001500003E011F8013B00F8013B521EF9D2704751
:10016000D2B201E000F8012B491EFBD270470022F9
:10017000F6E710B513460A4604461946FFF7F0FFA6
:10018000204610BD064C074D06E0E06840F0010334
:1001900094E8070098471034AC42F6D3FFF7B6FF57
:1001A000302700085027000810B586B0142101A898
:1001B000FFF7DDFF1448B0F858421449144800F026
:1001C00011FC10B101F020F91CE001AA0121104836
:1001D00000F042FC04EB84010B4A02EB8100142284
:1001E00001A9FFF7ABFF0848B0F85802401C0649C8
:1001F000A1F858020846B0F858021E2802D1002083
:10020000A1F8580206B010BD3C0400208A8001000D
:100210000064004070B50446002500261548B0F87B
:100220005A021449B1F85812884200D11FE011480F
:10023000B0F85A6206EB86000E4A02EB80011422E7
:100240002046FFF77BFF14210A48FFF790FF09487B
:10025000B0F85A02401C0749A1F85A020846B0F803
:100260005A021E2802D10020A1F85A020125284670
:1002700070BD00003C04002070B586B004460E46F8
:100280001546142101A8FFF772FF00200190029883
:1002900040EA0540029004208DF80C0000208DF803
:1002A0000D008DF80E40224631460DF10F00FFF78C
:1002B00045FF0E49B1F85822B1F85812491C0B4BB2
:1002C000A3F8581202EB82011A4602EB81001422B5
:1002D00001A9FFF733FF0548B0F858021E2803D1E3
:1002E00000200249A1F8580206B070BD980600200F
:1002F00070B586B0142101A8FFF739FF002400254E
:10030000032605211F4800F03DF9012837D100BF21
:1003100032E01D48B0F85A021B49B1F85812884221
:1003200029D00021174800F02DF9174890F85A52AB
:1003300005EB8500144A02EB8001142201A8FFF7A7
:10034000FDFE01A9114800F0F9FB0646032E11D06D
:100350000D48B0F85A02401C0B49A1F85A02084651
:10036000B0F85A021E2802D10020A1F85A02601CDF
:10037000C4B201E002E001E0032CCADB00BF06B01A
:1003800070BD0000080000209806002000640040B6
:100390000146002008784FF6FF7202EA00204A78F2
:1003A0001043704710B504220121114800F0C9FD27
:1003B000082201210E4800F0C4FD022201210C4850
:1003C00000F098FE90B10121094800F037FD40F29D
:1003D0000631084802F0F5F802220121044800F035
:1003E0004FFE02220121024800F07CFE10BD0000F9
:1003F000000002400048004010B5042202211248CB
:1004000000F09FFD082202210F4800F09AFD022211
:1004100011460D4800F06EFEA8B1022211460A48AE
:1004200000F060FE0021094802F08AF80221064827
:1004300000F004FD40F20531044802F0C2F801204A
:10044000034981F8000110BD00000240004800404F
:100450003903002010B504220521124800F071FD77
:10046000082205210F4800F06CFD022205210D48ED
:1004700000F040FEA8B1022205210A4800F032FE39
:100480000021094802F05CF80521064800F0D6FC7E
:1004900040F20531044802F094F80120034981F844
:1004A000000110BD0000024000440040380100205F
:1004B00010B504220621114800F043FD0822062150
:1004C0000E4800F03EFD022206210C4800F012FE0C
:1004D00090B10621094800F0B1FC40F2063108480D
:1004E00002F06FF802220621044800F0C9FD022242
:1004F0000621024800F0F6FD10BD00000000024099
:100500000044004005480068401C04490860084653
:100510000068401C08B900200860704704000020F3
:1005200010B51448006840F0010012490860084600
:100530004068114908400F494860084600680F4963
:1005400008400C4908600846006820F480200860D4
:10055000084640680A49084006494860084600685D
:1005600006490840034908604FF41F00886001F005
:1005700055FE10BD001002400C00FFE8FFFFF6FE24
:10058000FFFF00F710B50246002021B9074B1B689A
:100590001360012008E0054B1B6814681B1B8B428D
:1005A00001D3012000E0002010BD00000400002065
:1005B00010B501211C4801F0D8FF48B902211A48A2
:1005C00001F0D3FF20B90321174801F0CEFF10B18D
:1005D000154801F067FF1549134802F00CF860B1A7
:1005E00040F20531104801F0DFFF0521104800F00E
:1005F00025FC0E490C4801F0F1FF0E490A4801F0B4
:10060000FAFF80B140F20631074801F0CDFF052125
:10061000074800F02CFC4021034801F091FF0549F8
:10062000014801F0DBFF10BD004400400503050058
:10063000000002400603060010B501211C4801F02D
:1006400094FF48B902211A4801F08FFF20B9032115
:10065000174801F08AFF10B1154801F023FF154932
:10066000134801F0C8FF60B140F20531104801F0B5
:100670009BFF0221104800F0E1FB0E490C4801F0FD
:10068000ADFF0E490A4801F0B6FF80B140F20631D5
:10069000074801F089FF0221074800F0E8FB4021EC
:1006A000034801F04DFF0549014801F097FF10BDD7
:1006B0000048004005030500000002400603060054
:1006C00010B5002804DB0A07130E054A135406E090
:1006D0000A07140E034A00F00F031B1FD45410BD69
:1006E00000E400E018ED00E002E008C8121F08C1B5
:1006F000002AFAD170477047002001E001C1121FA3
:10070000002AFBD1704710B500F0FCFE00F00EFF90
:1007100001F011FA00F070FF00F072FE10BD10B58C
:1007200002220021152001F00FFA10BD70B5044619
:100730000D4614B1012C06D103E02846FFF76AFDEF
:1007400070BD0020FCE70020FAE72DE9F0410746E4
:100750000C4615461E4617B1012F07D105E032465B
:1007600029462046FFF788FD00E000BF00BFBDE836
:10077000F08110B5FFF7BCFD10BD000010B50446B8
:100780000548844207D140F2194001F023FC40F2B1
:10079000194001F00FFC10BD00640040014600202C
:1007A0008A69C2F30210704710B50021837A0122D2
:1007B00002FA03F13E4A126842F001023C4B1A6011
:1007C0003B4A1C3212688A43394B1C331A60C28977
:1007D000DAB9374A0C3212688A43354B0C331A6047
:1007E000C288344B03EA024243881A434389304C9F
:1007F000403444F8332082882E4B03EA02420388B7
:100800001A43438904EBC3035A60C289012A1BD1EE
:10081000274A0C3212680A43254B0C331A600288AF
:10082000244B03EA024243881A434389204C403454
:1008300044F8332082881F4B03EA0242C3881A43DC
:10084000438904EBC3035A6082893AB9184A121DDE
:1008500012688A43164B1B1D1A6006E0144A121DCB
:1008600012680A43124B1B1D1A6002893AB9104ADA
:10087000143212688A430E4B14331A6006E00C4A95
:10088000143212680A430A4B14331A60027C012A9C
:1008900006D1074A1C3212680A43054B1C331A6002
:1008A000034A126822F00102014B1A6010BD0000D9
:1008B000006600400000FFFF70B502464FF6FF7370
:1008C0000020146824F002041460146844F0010449
:1008D000146000E05B1E546804F001040CB9002BA6
:1008E000F8D1546804F001040CB9002074E00C78CD
:1008F0004FF0404505EA84744D784FF0407606EAA3
:1009000005652C438D784FF4702606EA05452C4387
:10091000CD784FF4E00606EA05552C434D896D1E4F
:10092000C5F309052C43D4610C79012C04D114685A
:1009300044F08004146003E0146824F08004146020
:100940004C79012C04D1146844F04004146003E095
:10095000146824F0400414608C79012C04D11468CC
:1009600044F02004146003E0146824F020041460B0
:10097000CC79012C04D1146844F01004146003E015
:10098000146824F0100414600C7A012C04D114684B
:1009900044F00804146003E0146824F008041460B0
:1009A0004C7A012C04D1146844F00404146003E070
:1009B000146824F004041460146824F00104146022
:1009C0004FF6FF7300E05B1E546804F001040CB1A5
:1009D000002BF8D103B1012070BD42690A43426186
:1009E00070470000F0B505460C46002600274CF283
:1009F000C200844205D10021284600F047F906468E
:100A000019E01348844205D10121284600F03EF93F
:100A1000064610E00F48844204D12846FFF7BEFE88
:100A2000064608E005EB14300068C4F38412012187
:100A3000914000EA0106686904F01F02012191401B
:100A400000EA010716B10FB10120F0BD0020FCE75C
:100A5000C5000100CB80010010B500F5D87303EB91
:100A600001131B6803F004031372137A3BB900F5FA
:100A7000D87303EB01131B685B0D136006E000F5F0
:100A8000D87303EB01131B68DB08536000F5D873C0
:100A900003EB01131B6803F00203537200F5DA73D2
:100AA00003EB01131B681B0AD37400F5DA7303EB25
:100AB00001131B6803F00F03937200F5DC7303EB63
:100AC00001131B68D37200F5DC7303EB01131B6881
:100AD0001C0A147300F5DC7303EB01131B681C0C78
:100AE000547300F5DC7303EB01131B681C0E947345
:100AF00000F5DE7303EB01131B68D37300F5DE739F
:100B000003EB01131B681C0A147400F5DE7303EB7E
:100B100001131B681C0C547400F5DE7303EB011306
:100B20001B681C0E947421B9C36843F02003C36092
:100B300003E0036943F02003036110BD30B50246B2
:100B40000B460021906800F08060B0F1806F00D10A
:100B500010E0906800F00060B0F1006F01D1012159
:100B600008E0906800F08050B0F1805F01D1022170
:100B700000E00321032901D1032030BD02F5C0703C
:100B800000EB0110006800F0010402F5C07000EBFA
:100B900001100460187A88B918883B4C04EA405068
:100BA0005C7A204302F5C07404EB011424682043EE
:100BB00002F5C07404EB0114206013E06FF0070429
:100BC000586804EAC0001C7A20435C7A204302F58E
:100BD000C07404EB01142468204302F5C07404EBD4
:100BE0000114206002F5C27000EB0110006820F0D3
:100BF0000F0402F5C27000EB0110046002F5C27030
:100C000000EB011000689C7A204302F5C27404EBEB
:100C100001142060987B4FF07F4404EA00605C7B05
:100C20004FF47F0505EA044420431C7B2D1205EA9E
:100C300004242043DC7A204302F5C47404EB01143D
:100C40002060987C2C0404EA00605C7C2D0205EA9C
:100C5000044420431C7C2D1205EA04242043DC7B41
:100C6000204302F5C67404EB0114206002F5C07045
:100C700000EB0110006840F0010402F5C07000EBC9
:100C800001100460084678E70000E0FF02460020FB
:100C900019B9D36803F0030004E0012902D11369F4
:100CA00003F00300704710B5024632B1012A16D096
:100CB000022A20D0032A41D12EE000234B71CB71B0
:100CC0008B7140F2FF334B8100230B724B70022378
:100CD0008B700023CB700B714B720B7030E00123D3
:100CE000CB8100230B740B810B804B808B80CB80DE
:100CF0008B814B8124E0002005E0002401F10B03EF
:100D00001C54431CD8B20828F7D300238B724B60C5
:100D10000B724B720B6013E0002005E0002401F120
:100D20000B031C54431CD8B20828F7D300238B7242
:100D30004B600B72CB744B720B6001E000BFFEE79F
:100D400000BF10BD70470000034890F83C0008B198
:100D5000012070470020FCE7900B002010B50446EE
:100D6000012C02D0022C06D102E000F007F802E0CC
:100D700000F012F800BF00BF10BD000010B54FF426
:100D800080710448FFF7F3F90020024981F800015F
:100D900010BD00003801002010B54FF480710448E8
:100DA000FFF7E5F90020024981F8000110BD0000BD
:100DB000390300202DE9F84304460F4615461E4628
:100DC000DDF820801B48009024B1012C03D0022CB8
:100DD00007D103E005E01748009002E016480090B4
:100DE00000BF00BF009801F063FB3946009801F096
:100DF00011FB2946009801F03AFC3146009801F0B9
:100E000026FC4146009801F012FC0021009801F0F8
:100E1000C3FB0021009801F0B7FB0421009801F00A
:100E20000EFC0821009801F01AFC009801F098FBD4
:100E3000BDE8F883004400400048004070B5054616
:100E40000C462146284600F0C1F908B900BFFEE76C
:100E500004EB8400810005F10800405820F00101F6
:100E600004EB8400820005F10800815070BD70B56C
:100E700005460C462146284600F0A8F908B900BFEF
:100E8000FEE704EB8400810005F10800405840F0C3
:100E9000010104EB8400820005F10800815070BD5F
:100EA00070B505460C462146284600F08FF908B972
:100EB00000BFFEE704EB8400810005F10800405804
:100EC00020F0200104EB8400820005F1080081502D
:100ED00070BD70B504460D462946204600F076F9EF
:100EE00008B900BFFEE705EB8500810004F10800AA
:100EF000405820F0010105EB8500820004F1080054
:100F00008150002105EB8500820004F1080081502A
:100F100005EB8500820004F10C00815005EB850093
:100F2000820004F11000815005EB8500820004F17D
:100F3000140081506068AA000F219140084360604E
:100F400070BD10B543688C0002FA04F4234343607B
:100F500010BD2DE9F04104460D46164629462046AF
:100F600000F034F908B900BFFEE705EB8500820008
:100F700004F110003168815005EB8500820004F116
:100F80001400B1688150308A81B205EB850082007F
:100F900004F10C00815005EB8500810004F108008C
:100FA000475827F47C57F168706808437169084313
:100FB000074305EB8500810004F108004750307EAF
:100FC00001280ED105EB8500810004F1080040588E
:100FD00040F0400105EB8500820004F108008150DB
:100FE0000DE005EB8500810004F10800405820F079
:100FF000400105EB8500820004F108008150707EFD
:1010000001280ED105EB8500810004F1080040584D
:1010100040F0800105EB8500820004F1080081505A
:101020000DE005EB8500810004F10800405820F038
:10103000800105EB8500820004F108008150B07E3C
:1010400070B905EB8500810004F10800405820F0DC
:10105000100105EB8500820004F1080081500DE0CD
:1010600005EB8500810004F10800405840F01001B4
:1010700005EB8500820004F108008150BDE8F08195
:1010800070B504460D4616462946204600F09EF8E7
:1010900008B900BFFEE705EB8500810004F10800F8
:1010A0004058B04305EB85018A0004F108018850DF
:1010B00070BD70B504460D4616462946204600F020
:1010C00085F808B900BFFEE705EB8500810004F153
:1010D00008004058304305EB85018A0004F10801FF
:1010E000885070BD10B543688C0002FA04F42343A5
:1010F000436010BD70B5034600BF00BF022A04D094
:10110000042A11D0082A2DD11DE018688E0002FA99
:1011100006F600EA060501EB8100860003F10800EF
:10112000805900F002041FE018688E0002FA06F6EB
:1011300000EA060501EB8100860003F108008059F2
:1011400000F0040410E018688E0002FA06F600EAC7
:10115000060501EB8100860003F10800805900F0CC
:10116000080401E000BFFEE700BF15B10CB101208B
:1011700070BD0020FCE770B506460C4615462146BA
:10118000304600F023F808B900BFFEE704EB840006
:10119000810006F11400455070BD70B505460C463F
:1011A0002146284600F012F808B900BFFEE704EB1C
:1011B0008400810005F10800405820F4804104EBD0
:1011C0008400820005F10800815070BD02460120B4
:1011D000034B9A4202D1042900DD00207047000031
:1011E0000004024070B506460C46154621463046BE
:1011F000FFF7ECFF08B900BFFEE7A9B204EB8400DB
:10120000820006F10C00815070BD10B50446012C1F
:1012100002D0022C06D102E000F048F810BD00F028
:101220004FF8FBE70020F9E710B500F027F8044677
:10123000012020706070002060803420A080012098
:1012400010BD10B500F01AF80446012020700320EC
:1012500060704FF47A7060800E20A080012010BD75
:1012600010B500F00BF804460120207003206070D8
:10127000002060803420A080012010BD004870470D
:10128000F408002010B500F00DF80446012020708D
:10129000042060704FF4C87060800A20A080012094
:1012A00010BD000000487047880A002000487047C1
:1012B00038010020014890F80001704738010020F3
:1012C0000048704739030020014890F8000170473A
:1012D0003903002010B50446012C02D0022C06D19F
:1012E00002E0FFF7E7FF10BDFFF7EEFFFBE700208E
:1012F000F9E7000008B500210020009014480068BC
:10130000009000BF0EE001EB4100114A0244481C6E
:1013100000EB40000E4B18440388138080789070D7
:10132000481CC1B20A4890F83C00401E8842EADCE2
:10133000074890F83C00401E054A82F83C00BDF882
:10134000002010469DF8022040EA024008BD00003F
:10135000900B0020F0B5044616460025002201F04F
:101360000F0501F0100707B1354300201EE00127EB
:1013700087401F40C7B122684FEA800C0F2707FA49
:101380000CF7BA43870005FA07F73A43282904D136
:10139000012787401F40676105E0482903D10127E5
:1013A00087401F4027612260471CB8B20828DED35F
:1013B000082022E0012787401F40E7B16268A0F1C2
:1013C00008074FEA870C0F2707FA0CF7BA43A0F17A
:1013D0000807BF0005FA07F73A43282904D1012777
:1013E00087401F40676105E0482903D101278740F6
:1013F0001F4027616260471CB8B21028DAD3F0BDE5
:1014000010B500F001F810BD10B500F061F800F063
:1014100003F800F03BF810BD0EB569460020FFF759
:1014200042FC1948FFF7AAF900208DF804000120BA
:101430008DF8050000208DF806008DF807008DF866
:1014400008008DF8090001208DF8000000208DF8BB
:10145000010004208DF8020002208DF803003020E6
:10146000ADF80A0069460848FFF726FA69460648BB
:10147000FFF722FA10210448FFF7AFFA4FF480611A
:101480000148FFF7AAFA0EBD0064004000B585B020
:1014900069460120FFF707FC0020ADF80A00ADF80F
:1014A0000C000120ADF80E000020ADF80000ADF8F2
:1014B0000200ADF80400ADF806000120ADF8080008
:1014C0008DF810006846FFF76FF905B000BD000009
:1014D00010B540F2026000F05DFD40F2197000F0BE
:1014E00059FD4FF40063032248210548FFF732FFFE
:1014F0004FF48053032218210148FFF72BFF10BD42
:101500000008014010B540F2046000F043FD4FF4C4
:101510000053032210210448FFF71CFF4FF4005032
:101520000149086110BD00000010014010B51248CB
:1015300000684FF47A71B0FBF1F4601EB0F1807F67
:1015400001D301200FE0601E4FF0E02148610F2120
:101550004FF0FF30FFF7B4F800204FF0E021886132
:1015600007200861002008B100BFFEE70021481EE7
:10157000FFF7A6F810BD00000000002010B500F035
:1015800003F800F051F810BD10B540F2026000F011
:1015900001FD40F2117000F0FDFC0423032218212C
:1015A0000448FFF7D7FE0823032204210148FFF770
:1015B000D1FE10BD0008014010B500F003F800F0A6
:1015C000AFF810BD10B540F2036000F0E3FC40F24C
:1015D000127000F0DFFC4FF48063032218210548ED
:1015E000FFF7B8FE4FF40063032204210148FFF720
:1015F000B1FE10BD000C014008B5FFF7BFFF002091
:10160000034602464FF4E13100900120FFF7D2FB80
:10161000FFF7D2FF0020034602464FF4E13100906D
:101620000220FFF7C7FB08BD00B587B04FF4A060EC
:1016300000F0B0FC06213648FFF74BFC01208DF886
:101640001A003448029001208DF819000020039000
:101650004FF4807004903048009000208DF81800FE
:1016600001904FF4405005906A4606212848FFF744
:1016700070FC05212648FFF72CFC00208DF81A008D
:101680002648029001208DF81900002003904FF4A5
:10169000807004902048009000208DF81800019080
:1016A0004FF4405005906A4605211948FFF751FC58
:1016B00006211748FFF7F4FB06211548FFF76DFDDB
:1016C000022206211248FFF7F4FC042206211048EA
:1016D000FFF7D6FC082206210D48FFF7D1FC0521B3
:1016E0000B48FFF7DDFB05210948FFF756FD0222F5
:1016F00005210748FFF7DDFC042205210448FFF718
:10170000BFFC082205210248FFF7BAFC07B000BD64
:10171000000002403800002004440040380100204E
:1017200000B587B04FF4A06000F034FC01213648CA
:10173000FFF7CFFB01208DF81A00344802900120FA
:101740008DF81900002003904FF480700490304809
:10175000009000208DF8180001904FF44050059043
:101760006A4601212848FFF7F4FB02212648FFF7CB
:10177000B0FB00208DF81A002648029001208DF859
:101780001900002003904FF48070049020480090CE
:1017900000208DF8180001904FF4405005906A46E3
:1017A00002211948FFF7D5FB01211748FFF778FB05
:1017B00001211548FFF7F1FC022201211248FFF731
:1017C00078FC042201211048FFF75AFC082201216D
:1017D0000D48FFF755FC02210B48FFF761FB022182
:1017E0000948FFF7DAFC022211460748FFF761FCBF
:1017F000042202210448FFF743FC08220221024888
:10180000FFF73EFC07B000BD000002403902002097
:10181000044800403903002010B53B48007800F030
:10182000010048B93948007818B9384800780128CB
:1018300002D000203549087034480078062856D276
:10184000DFE800F0031321313C4CFFF7FAFC30498C
:1018500008703048304908602120304908802B4802
:101860000078401C2949087042E02D4890F900009A
:10187000401C38B12A48007808B9022000E0002056
:101880002249087034E0FFF7EBFC21490870254835
:10189000214908606D20214908801C480078401CBF
:1018A0001A49087024E01E4890F90000401C20B13D
:1018B00016480078401C1549087019E0FFF7B4FC81
:1018C000134908701848144908600C20134908800F
:1018D0000E480078401C0D49087009E0104890F946
:1018E0000000401C10B102200849087000E000BF51
:1018F00000BF0948026809480188054800F0B0F9AE
:101900000749087010BD00000C00002015000020E1
:101910001600002009200008180000201C000020EC
:101920001700002041200008F51F00080EB5002414
:101930000020029019A103C9CDE900010C25FEF792
:10194000E2FE29E041F2883102A8FEF71BFE0128E1
:101950001AD1002102A8FEF715FE0CB9012000E003
:1019600000200446012C03D140030E49086103E026
:101970004FF400500B494861681CC5B22B466A46BB
:1019800008210020FEF7E1FEFFF746FF00F078FE99
:1019900000F048FCFEF7EDFED4E70000010203046E
:1019A000050607080010014070B502460B464FF6C9
:1019B000FF7000240025002100BF13E0545C0025C7
:1019C0000DE084EA000606F0010626B14AF201069F
:1019D00086EA600600E04610304664106D1C082D53
:1019E000EFDB491C9942E9DB70BD2DE9F84307465E
:1019F000884691463D4600244646002000902878BF
:101A00003055641C68783055641CA81CFEF7C0FC77
:101A100000903019BDF800100180A41C281DFEF7AD
:101A2000B7FC00903019BDF800100180A41C687844
:101A300010280DD1A8793055601C84B2EA8830197D
:101A400005F10801FEF77AFBE888204484B200BF64
:101A500000BF21463046FFF7A7FF00903019BDF8C0
:101A600000100180A01C84B2A9F80040BDE8F883F2
:101A70002DE9FE4F80468A4616469946474655460A
:101A80000024A3460020029001900090B8F1000FBE
:101A900005D025B1062E02DAB9F1000F02D10020DF
:101AA000BDE8FE8F285D3978884201D00020F7E735
:101AB000601C84B2285D7978884201D00020EFE76D
:101AC000601C84B27878102816D12819FEF760FCC3
:101AD0000190A01C84B22819FEF75AFC0090A01CAB
:101AE00084B279880198814203D1B98800988142F3
:101AF00001D00020D4E708E0285D401DB04201D0AD
:101B00000020CDE7601C84B200BF00BFB01E284497
:101B100000880290B11E2846FFF746FF8346BDF8B5
:101B20000800584501D00020BAE7721F91B2281969
:101B3000C8470120B4E710B500F0FEFB00F058FCE8
:101B4000FEF7EDFD10BD00002DE9F04103460D4606
:101B5000164600240027A0462448006800F4E060F0
:101B6000B0F5A06F15D006DCB0F5407F18D0B0F509
:101B7000806F19D110E0B0F5C06F06D0B0F5E06FFE
:101B800012D100274FF0040815E001274FF0030899
:101B900011E00227B8460EE003274FF001080AE0E3
:101BA00004274FF0000806E04FF4A06000F022F890
:101BB0000227B84600BF00BFC7F1040005FA00F4D1
:101BC000C8F104010F20C8403040044324010848F4
:101BD000C45403F01F01012088405911890001F10C
:101BE000E021C1F80001BDE8F08100000CED00E04B
:101BF00000E400E002490143024A1160704700001E
:101C00000000FA050CED00E01CB5002000900190EA
:101C10000548016800914068019001236A46082147
:101C20001846FEF792FD1CBDEE0B002070B506466F
:101C30000D460024285D66280EDB285D07490870E4
:101C4000601CC4B2285D4870601CC4B2285D8870F6
:101C5000601CC4B2FFF7D8FF70BD0000EB0B002082
:101C60002DE9F043C1B004460D4616464FF0FF374C
:101C70004FF4807101A8FEF77AFA002000902078D6
:101C8000012852D13448007810B101284CD11CE011
:101C9000FFF7F4FA80466A4601A9FFF7A6FE2B4635
:101CA000BDF8002001A9012000F03CFA00212B48DA
:101CB000FEF768FC2A480078401C2949087026482D
:101CC0000078401C244908702EE040F22621234869
:101CD000FEF758FC10BB0120FFF7FCFA012822D1C7
:101CE000FFF793FA8046FFF7C9FA814633462A4642
:101CF0004146FFF7BDFE01280ED1002018490870AB
:101D00001848008820F00100401C16490880012076
:101D1000FFF724F8002706E0012704E000210F4820
:101D2000FEF730FC012700BF00BF781C18B100206F
:101D30002070094908700A480078042808DB04204C
:101D4000074908700748008820F00100054908800D
:101D5000384641B0BDE8F0830E000020100000209E
:101D6000140000200C0000202DE9F043C1B004460F
:101D70000D4616464FF0FF374FF4807101A8FEF76D
:101D8000F6F9002000902078012852D134480078DC
:101D900010B101284CD11CE0FFF784FA80466A4656
:101DA00001A9FFF722FE2B46BDF8002001A9022061
:101DB00000F0B8F900212B48FEF7E4FB2A48007830
:101DC000401C2949087026480078401C24490870A6
:101DD0002EE096212348FEF7D5FB18BB0220FFF723
:101DE00079FA012823D10220FFF70FFA8046FFF786
:101DF00059FA814633462A464146FFF739FE012803
:101E00000ED10020184908701848008820F0010001
:101E1000401C164908800220FEF7A0FF002706E0BC
:101E2000012704E000210F48FEF7ACFB012700BFAB
:101E300000BF781C18B100202070094908700A48BA
:101E40000078042808DB0420074908700748008848
:101E500020F0010005490880384641B0BDE8F08314
:101E60002200002024000020280000202000002064
:101E70002DE9F04F8BB00746002009903EA090E876
:101E8000004CC068CDE905BECDF810A007900FF258
:101E9000EC0ADAE9000ACDE9020A0FF2E00ADAE90F
:101EA000000ACDE9000A38484068C0F381000A9072
:101EB0000A9820B1012804D0022829D103E033492F
:101EC00028E0324926E03048406800F48038B8F510
:101ED000803F09D12D4C2C48406800F40039B9F5F9
:101EE000003F02D1641000E0294C27484068C0F34D
:101EF00083422548406800F0006008B142F01002BB
:101F00000F2A01D2921C00E0521C04FB02F101E0F6
:101F10001E4900BF00BF1C484068C0F3031504A859
:101F2000465D21FA06F318484068C0F3022502A86E
:101F3000465D23FA06FC14484068C0F3C2251DF82C
:101F4000056023FA06F0089037B1012F06D0022F62
:101F500006D0032F0AD106E0099108E0099306E0B4
:101F6000CDF824C003E00898099000E000BF00BF4E
:101F700009980BB0BDE8F08F0000000000000000E1
:101F800001020304060708090010024000127A004B
:101F900000093D00064A02EB9011096800F01F039A
:101FA00001229A401143024B03EB901211607047DB
:101FB00000100240064A02EB9011096800F01F036E
:101FC00001229A409143024B03EB9012116070473B
:101FD00000100240064A02EB9011096800F01F034E
:101FE00001229A401143024B03EB9012116070479B
:101FF00000100240034A036813608388938083794A
:1020000093717047810A00202DE9F04104460F4684
:1020100000254EF6EE66A669AE4201D10C2000E026
:102020000E20064908700846007842002146034801
:10203000401CFEF783F8BDE8F0810000FC09002099
:102040002DE9F04105460F460024074E00BF07E08A
:10205000022101FB0450FEF79BF93080601CC4B2E2
:10206000342CF5D3BDE8F081190A00202DE9F041A8
:1020700005460F460024074E00BF07E0022101FB82
:102080000450FEF785F93080601CC4B20A2CF5D3E9
:10209000BDE8F081D70B002038B5FFF703F90446FF
:1020A000002000900120207010206070CC20608003
:1020B0000120A0800220E0800448FEF769F900902A
:1020C000BDF800002081012038BD0000D50B0020A4
:1020D00038B5002500200090FFF7E4F80446012001
:1020E000207010206070C82060800420A08008202C
:1020F000E08000BF0FE00A4901EB4500FEF748F918
:10210000009004F10800022101FB0500BDF8001059
:102110000180681CC5B2A088A842ECDC012038BD53
:10212000CD0B00202DE9F04107460C4615461E4612
:10213000012F02D0022F0CD105E03246294620465D
:1021400000F0B0F805E032462946204600F006F9D6
:1021500000BF00BFBDE8F081002000212C4A1268BA
:1021600042F480322A4B1A6000BF401C284A126891
:1021700002F4003119B94FF6FF729042F5D1244AAA
:10218000126802F400320AB900BFFEE7204A526822
:102190001F4B5A601A4652685A601A46526842F4F7
:1021A00080625A601A46526822F440325A601A46D7
:1021B000526842F440325A601A465268154B1A402F
:1021C000134B5A601A465268134B1A43104B5A600D
:1021D0001A46126842F080721A6000BF0C4A1268F8
:1021E00002F00072002AF9D0094A526822F0030274
:1021F000074B5A601A46526842F002025A6000BF0A
:10220000034A526802F00802002AF9D07047000021
:1022100000100240FFFFC3F70000280810B5FFF7C9
:102220009BFF10BD10B50848007810B1012809D1F6
:1022300005E005480078401C0349087002E000F002
:1022400005F800BF00BF10BD3600002030B585B0D6
:1022500014216846FDF78BFF0025092469460020FC
:10226000FEF764FA012818D10198C0F3074500244D
:1022700010E00B4810F83400A84209D19DF80A007C
:10228000074901EBC4014A680DF10B01904703E0D7
:10229000601CC4B2012CECDB00BF05B030BD0000F7
:1022A0002827000870B504460D4616462A462146E2
:1022B0001C48FDF743FF2A4606211B48FEF792FF04
:1022C000184A06211848FEF756FF05211648FEF762
:1022D000B5FD164A05211448FEF74DFF324605218B
:1022E0001148FEF77FFFFEF749FD1149114800F044
:1022F00075F9022206210C48FEF7DBFE04220621B6
:102300000948FEF7BDFE082206210748FEF7B8FE81
:102310008021084800F01CF906210348FEF7A7FDBC
:1023200070BD00003800002000000240380100208D
:10233000060306000044004010B500221146262086
:10234000FFF702FC012200211120FFF7FDFB022212
:1023500000211020FFF7F8FB10BD000070B5044607
:102360000D4616462A4621461C48FDF7E7FE2A463A
:1023700001211B48FEF736FF184A01211848FEF7D5
:10238000FAFE02211648FEF759FD164A02211448AA
:10239000FEF7F1FE324602211148FEF723FFFEF759
:1023A000FBFC1149114800F019F9022201210C48E7
:1023B000FEF77FFE042201210948FEF761FE082294
:1023C00001210748FEF75CFE8021084800F0C0F8B4
:1023D00001210348FEF74BFD70BD000039020020CB
:1023E00000000240390300200603060000480040B8
:1023F00010B5002201212720FFF7A6FB012211467C
:102400000C20FFF7A1FB022201210D20FFF79CFB0E
:1024100010BD00002DE9F04704460D460027B846E0
:10242000B94600261D49601A8C421CD006DC1C48A7
:10243000204470B1B0F5806F1FD10FE0B0F5806F10
:1024400016D0B0F56C4F18D10320FFF711FD0746E9
:1024500014E00220FFF70CFD07460FE00220FFF713
:1024600007FD07460AE00220FFF702FD074605E0E8
:102470000220FFF7FDFC074600E000BF00BF07EBAE
:102480005500B0FBF5F64FF6F07006EA000806F0CE
:102490000F0948EA0900A060BDE8F087004C004041
:1024A00000BCFFBF01464868C0F308007047000049
:1024B00010B504462049601A8C4228D006DC1F481B
:1024C000204490B1B0F5806F33D117E0B0F5806F44
:1024D00026D0B0F56C4F2CD140F20E30FFF77AFDCC
:1024E00040F20E30FFF766FD24E040F21140FFF7A6
:1024F00071FD40F21140FFF75DFD1BE040F212401C
:10250000FFF768FD40F21240FFF754FD12E040F281
:102510001340FFF75FFD40F21340FFF74BFD09E06A
:1025200040F21440FFF756FD40F21440FFF742FD21
:1025300000E000BF00BF10BD004C004000BCFFBF6A
:102540000A460021416921F0400111434161704771
:102550000A460021416921F0800111434161704721
:10256000C16841F40051C160704710B5024602EBEA
:102570009110006801F01F040123A340184008B126
:10258000012010BD0020FCE70A460021416921F42A
:1025900000711143416170470A460021416921F4ED
:1025A000807111434161704710B5C1F3891282589F
:1025B00001F01F040123A3409A43C1F38913C250C1
:1025C00010BD10B5C1F38912825801F01F04012318
:1025D000A3401A43C1F38913C25010BD10B500EBDC
:1025E00091521268C1F304440123A3409A4300EBC3
:1025F00091531A6010BD70B5024600230024C1F348
:102600008910105801F01F060125B54000EA0503A6
:1026100002EB91500068C1F304460125B54000EA81
:10262000050414B10BB1012070BD0020FCE7C268A5
:1026300022F4C062C260C2680A43C26070470A46A0
:102640000021C16821F004011143C1607047026993
:1026500022F44052026102690A43026170470A464D
:102660000021C16821F008011143C1607047C268B0
:1026700022F48052C260C2680A43C2607047000000
:1026800008B50020009022480078002838D1FEF7D5
:102690005BFB00B3FEF72EFE00909DF801000128C1
:1026A00002D0022816D10AE0FFF7F6FC184908709C
:1026B0001848194908600820184908800AE0FFF7FF
:1026C00007FD13490870134813490860082013498F
:1026D000088000BF14E04FF47A711148FDF752FFF3
:1026E00001280DD100210E48FDF74CFFFEF7CAFD71
:1026F000074908700B4808490860212007490880ED
:1027000005480268054801880148FFF72DFB08BD10
:1027100029000020450D0008300000203400002072
:102720002C0000206D200008010000002D1C000876
:10273000502700080000002038000000E8060008CC
:102740008827000838000020C02B0000F806000889
:1027500000F36F0600000000000000000000000011
:1027600000000000000000FF092000080500000034
:102770000000000000000000000000000000000059
:082780006D20000805000000B7
:0400000508000105E9
:00000001FF
